S03500005B6C77746F6F6C7320342E32345D202F55736572732F646176652F736F757263652F7265706F732F74656D706573745F616974
S1131AC07E1AF421417E1DAF7E1DC21F68D0010421
S1131AD01401081100D002041700D00104140204F8
S1131AE01700C801081501081400D002031200D819
S1131AF0010811000F95B6BE6E34022758D6951012
S1131B008ED015EBA43128108CEAB125F6C14A27F2
S1131B100E9685812024088698D6861F0263A4BD6C
S1131B20D0541BD83384BDD07BCC2159ED02ED8831
S1131B3014EF06AF47CC1CB2ED4D6F4BCC1DD6ED68
S1131B40088D14BD1B95B6BE62BDD03FA74CBDD059
S1131B50186AE426CA3582BD26C3ED04A70AE70C39
S1131B6010AE020D842B178610BDD0420D852B04B8
S1131B708B072005ABA4408B8FA704A70A398620C6
S1131B80BDD0420D862B048B182005AB21408BEA77
S1131B90A705A70C39CCFFFF108EB3543466EEA40E
S1131BA027284FE644E00482002A04435082FFDDE4
S1131BB02B4FE645E00582002A04435082FFD32BD5
S1131BC010A3E42205EDE410AF623122108CB3A41B
S1131BD026CC356610AF49399659857F2708860487
S1131BE08E1BD87ED066860C8E1BEE7ED066AE47EA
S1131BF0CC0000DD2B10AED8092614108E985AB6EE
S1131C00BE6ABBBE6BBBBE6C2705BD1B9520E6A69A
S1131C1024A0048B028104230BC601A624A104245E
S1131C200150D72BA625C601A105240150D72CECC1
S1131C30049B2BDB2CBD00062704902BD02CA70A79
S1131C40E70C108C985A2710E025CB03C106220814
S1131C50A0248B038106236A962B270C2B05CC1C0E
S1131C60AA2011CC1CA2200C962C2B05CC1CB22033
S1131C7003CC1CBA10A34D2704ED4D2008E64BCB32
S1131C8002C10825015FE74B10AE4DECA5ED02BD86
S1131C90D08D6A4C2603BD20068E1BEEB6BE637E35
S1131CA0D0662141214521412149214D2151214D18
S1131CB021552159215D2159216121652169216520
S1131CC0216DA60AA1242512A60AA0B802800181CA
S1131CD0072507A72ACC2141200DA60A8B08818B52
S1131CE024E6A72ACC214DED02A60C8B02A72CBD1D
S1131CF0D0156F0B6F8812BD1DAFAED80934508656
S1131D00019795AD980835500F95EC84DD1BAF49CC
S1131D106F0B6F881210AE06EC29ED028614A74BE8
S1131D20AE47CC1AEABDD04BBD1DAFAE49EC041092
S1131D30AE02BDD01EA60AD684C407EB0CC1DC23B8
S1131D4002C6DCED04CCAABB8D7886028E1D527EC1
S1131D50D066AE49EC0410AE02BDD01EA60AD684ED
S1131D60C40750EB0CC1182402C618ED04CCAABB5E
S1131D708D5086028E1D7A7ED0666A4B26A2CC1ABE
S1131D80EFBDD04BAE49DC1BED849F1BEC0410AEC1
S1131D9002BDD01EEC0410AE02BD1E19AE47EC0409
S1131DA010AE02BDD01EBDD018BD1B957E1BEEC665
S1131DB0BBD72DA60AE60CED0410AE02BDD0937E6F
S1131DC0D0183406972DEC04BDD093A661972DA6A8
S1131DD004BDD09035869648263C7ABE6EBD5B4FD6
S1131DE0BDD07EAE063384BDD05DEC4210831D525F
S1131DF02517AE49DC1BED849F1B10AE02EC04BD1D
S1131E00D01E0C95BD00090F95CC1ACDBDD04BCC7E
S1131E100150BDD00C397ED0183456DC1D27344F08
S1131E208E1EABBDD05A3384BD1FFC8611A74FBD97
S1131E30D07BAF47EF0610AF4910AF0210AF881444
S1131E40ECE4A70AE70CCC1F1FED088D088D224F88
S1131E505FED0435D6860FBDD03F8BF04048488BEC
S1131E60E0A74B8612BDD03F8BED40488BEEA74CCC
S1131E703996852B189664AB4B81BF23028607A144
S1131E800A2305CC1FD8201BCC1FCC20169666AB8A
S1131E904C81FC23028618A10C2305CC1FE42003EB
S1131EA0CC1FF0ED4D86FDA7881339AE4710AE4D1B
S1131EB0A688138B03810923014FA7881331A6E653
S1131EC0A44FE349ED02EC21AB0AEB0CBD0006265E
S1131ED013A70AE70C968481F82303BD1E55968642
S1131EE081E42303BD1E7110AE02A64FECC6BDD023
S1131EF01ECCEE00BD1DC2A60AE60CED041F02A610
S1131F004F10AFC68B02811F25028611A74F10AE5A
S1131F1002CC00AABD1DC286038E1EAB7ED066967F
S1131F20482644341010AE02AE0686113402EC8604
S1131F30BDD01E35028B02811F25F1BDD05D351049
S1131F40CC1F68ED02868AA1042402A70486DBA1C3
S1131F50052402A705BD5B43BDD07ECC1ADABDD0F3
S1131F604BCC0110BDD00C3906101F6CAAAAAAAA2A
S1131F70AAA0AA0000000AA0AA0BB0BB0AA0AA0B40
S1131F80B0BB0AA0AA0BB0BB0AA0AA0000000AA01A
S1131F90AAAAA0AAAAA0AAA00000AAA0AA00000017
S1131FA00AA0AA0A000A0AA0AA0A000A0AA0AAAA5F
S1131FB00A0AAAA0AAAA0A0AAAA0AAAA0A0AAAA05B
S1131FC0AA000A000AA0AAAAAAAAAAA000FE0004BB
S1131FD0FE0000FE0008FE000C02001002000C02CD
S1131FE0001402001800041C00041800042000045B
S1131FF02400FC2800FC2400FC2C00FC86076FC68F
S11320004C811F25F9393450B6BE62BDD03FA74C70
S1132010968E81082443DC1D273F31844F8E20B0E7
S1132020BDD05A33848DD5BDD07BCC205BED8816D2
S1132030CC206BED02ED8814CC2119ED08EF06AF2E
S113204047EC24C30304ED04ED0ABD207B0C8E860B
S11320500DA74CCC1AE2BDD04B35D00304205FFF52
S1132060FFFFFFFFFFFFFFFFFFFFFF0304206F00E1
S1132070000000FF0000FF00000000CC0000ED495C
S113208096842A13840F8BFA9B64C601A10A240147
S113209050E74996862B119685840F8BFAC6019BCF
S11320A066A10B240150E74A8607BDD03FA74B39F0
S11320B0AE476A4B2603BD207BBD20C7BD20C78623
S11320C0028E20B07ED066EC0AAB4981072406A0BC
S11320D049604920F4818E22F6EB4AC1182406E0B7
S11320E04A604A20F4C1EA22F6108EDDDD10AF9872
S11320F00AED0A830101ED04108E0000A64C10AF16
S1132100D6CCAAAA10AE0AEDA4A64C10AFC68B0278
S1132110811F2502860DA74C390A8E96482621BDBB
S1132120D07EAE06CE0000860DEF968B02811F2670
S1132130F8BDD05DCC0025BDD00CCC1AD5BDD04B9C
S11321403907102171071021E107102251071022CD
S1132150C107102331071023A107102411071024ED
S113216081071024F107102561071025D1071026D7
S11321704100007C7C700000000C0C0C7C00000012
S11321807C7CC0CC7000070CC0C7C0C7000CCC7CE2
S1132190CCC7C70007777CC7C0CC00000777CC0C3E
S11321A0C700007AA7770C70000077777CC0000026
S11321B00007777000000000000670000000006651
S11321C06600000000000006000000000000060099
S11321D00000000004660000000000000000000091
S11321E00000007C7C700000000C0C0C7C000000E3
S11321F07C7CC0CC7000070CC0C7C0C7000CCC7C72
S1132200CCC7C70007777CC7C0CC00000777CC0CCD
S1132210C700007AA7770C70000077777CC00000B5
S113222000077770000000000006700000000066E0
S11322306600000000000006600000000040400648
S11322400000000004006000000000000000000026
S11322500000007C7C700000000C0C0C7C00000072
S11322607C7CC0CC7000070CC0C7C0C7000CCC7C01
S1132270CCC7C70007777CC7C0CC00000777CC0C5D
S1132280C700007AA7770C70000077777CC0000045
S11322900007777000000000000670000000006670
S11322A066000000000000064000000000606004BA
S11322B000000000060040000000000000000000D4
S11322C0000007CC7C00000000CC7CCC7000000730
S11322D0C70C707C000077CC7C7CCC7000CC0CCC20
S11322E00C7070007CC07CCCCC700077CCCC777048
S11322F000000CC7C77AA7000000077777770000B3
S11323000000077770000000000760000000000074
S1132310006666000000000060000000000000602D
S11323200000000000006640000000000000000003
S1132330000007CC7C00000000CC7CCC70000007BF
S1132340C70C707C000077CC7C7CCC7000CC0CCCAF
S11323500C7070007CC07CCCCC700077CCCC7770D7
S113236000000CC7C77AA700000007777777000042
S11323700000077770000000000760000000000004
S113238000666600000000066000000000006004B3
S113239004000000000600400000000000000000EF
S11323A0000007CC7C00000000CC7CCC700000074F
S11323B0C70C707C000077CC7C7CCC7000CC0CCC3F
S11323C00C7070007CC07CCCCC700077CCCC777067
S11323D000000CC7C77AA7000000077777770000D2
S11323E00000077770000000000760000000000094
S11323F00066660000000004600000000000400663
S1132400060000000004006000000000000000005E
S11324100000000C70000000007CC77C7C7000078A
S1132420CC0CCC0C770077C7C7C0C0CC70CCC0CC68
S1132430C7CC0C70C7C77C0C77C7C070C777C77090
S11324407C700CCAAA7AAA7700077777777770002E
S1132450000007770000000000076700000000008C
S113246066666000000006006006000000000606C4
S1132470000000000066066000000000000000008C
S11324800000000C70000000007CC77C7C7000071A
S1132490CC0CCC0C770077C7C7C0C0CC70CCC0CCF8
S11324A0C7CC0C70C7C77C0C77C7C070C777C77020
S11324B07C700CCAAA7AAA770007777777777000BE
S11324C0000007770000000000076700000000001C
S11324D0666660000000060066060000000006064E
S11324E0600000000006000000000000660000001C
S11324F00000000C70000000007CC77C7C700007AA
S1132500CC0CCC0C770077C7C7C0C0CC70CCC0CC87
S1132510C7CC0C70C7C77C0C77C7C070C777C770AF
S11325207C700CCAAA7AAA7700077777777770004D
S113253000000777000000000007670000000000AB
S1132540666660000000060660060000000066067D
S1132550000000000000060000000000000660000B
S113256000000007C0000000007C70C7C770000CAA
S113257070C7CCC7C7007C00C70C0C07707CC77C35
S1132580CC7C7CC0777CC0C0C7C7707700CC0C07FC
S1132590C770077C77CCCC770000C770C777700012
S11325A0000007770000000000076700000000003B
S11325B06666600000000600600600000000060673
S11325C0000000000066066000000000000000003B
S11325D000000007C0000000007C70C7C770000C3A
S11325E070C7CCC7C7007C00C70C0C07707CC77CC5
S11325F0CC7C7CC0777CC0C0C7C7707700CC0C078C
S1132600C770077C77CCCC770000C770C7777000A1
S113261000000777000000000007670000000000CA
S113262066666000000006006606000000000606FC
S113263060000000000600000000000066000000CA
S113264000000007C0000000007C70C7C770000CC9
S113265070C7CCC7C7007C00C70C0C07707CC77C54
S1132660CC7C7CC0777CC0C0C7C7707700CC0C071B
S1132670C770077C77CCCC770000C770C777700031
S1132680000007770000000000076700000000005A
S1132690666660000000060660060000000066062C
S11326A000000000000006000000000000066000BA
S10426B00025
S50300C03C
S9030000FC
