S03500005B6C77746F6F6C7320342E32345D202F55736572732F646176652F736F757263652F7265706F732F74656D706573745F616974
S11326C07E2FC27E31997E30857E34E07E26FC7E6C
S11326D026F57E34AF35EB35AEEE02081101201736
S11326E000F001102800F001102500E01D040E0088
S11326F0D001080100860220057ED0638601108E79
S1132700C3B30D592AF3F6CC05C40FC109260297A9
S113271051915122E497400F4F0F50C608BDD0BAD3
S1132720CED015408B9A9B511997518ECD00BDD0B8
S1132730AB96408002CC26E12503CC26E6BDD04BE7
S11327404FABC433481183EAB125F6A7A9FABF8673
S11327507F9759BDD0128EBDE46F808CBE5C26F984
S11327608ECC02BDD0A2BDD0C6B7BDEC8601973FCA
S11327708601B7BDED97488ECC00BDD0A25F44560C
S1132780445644564456DD46FDBDE9BD2B7C8EBD02
S1132790E4A680A7883B8CBE2026F696404A2603F2
S11327A07FBE28867F9759BDD0456A08BDD012BD2B
S11327B0D060AE9F9811260BBDD036BDD05427C330
S11327C07ED096BDD033BD5B40BDD030BD2A21BD87
S11327D0D099B6C8062A08963F4A2703BDD09CBDA7
S11327E034AFBDD0240FF296482605BD34C0203640
S11327F0FCBDE5260B861197CF8671BD5F9620033D
S1132800BD34C00F4896404A271C969097CFD63FB8
S11328108667BD5F9986738E281D7ED0660FCFD6DE
S11328203F8667BD5F99BD2B0BBD2F8C0F067FC004
S113283006BD0000BD1AC0BD4B00BD0003BD3883FA
S1132840BD3880BD29A486089792BDD054354BBDB0
S1132850298FBDD033BD1140BD4B0386199759B69E
S1132860BE6E270DBDD054414086968E28747ED00E
S1132870667E28FEBD29F5BD298F86068E28827EB8
S1132880D066BD29D286048E288D7ED066BD29836C
S1132890BDD05431B5BDD05430B30F59860C8E28F9
S11328A0A47ED066BD2983BD298F860A8E28B27E78
S11328B0D066BD2983BD298F860497920FCF867178
S11328C0BD5F96BD34C08E20FBCE2C03A6C0885AB3
S11328D02705BD5F9020F57E2A85202843292031D5
S11328E03938322057494C4C49414D5320454C45C9
S11328F04354524F4E49435320494E432E20DE1534
S11329006F478E9821AF499E21AF4BAF4D8601345E
S113291002AE49AE842715BD29B5A64784038103B9
S11329202605BD5B582003BD5B46AF496C47A647EF
S11329308120230D10AE4D271810AEA4271310AF1D
S11329404D6AE426CC35028D1C86018E290D7ED07D
S113295066350286028E295B7ED0668D26860A8EB7
S113296028747ED06634108604972BAE4BAC4D266B
S1132970058E98212003BDD018AE840A2B26EEAF15
S11329804B35909E212707BDD018AE8426F9399E79
S113299023270C9690BD3888AF9806AE8426F43968
S11329A09E2320029E21270CEC0410AE02BDD01EF3
S11329B0AE8426F4393446EE02E6C4A60448240262
S11329C086FF3DAB0497A6E641A6053DAB0597A758
S11329D035C68E985A10AE02A6213402A6E49B5F37
S11329E04A97A74FBD468643BD4686A6E48003A703
S11329F0E42AE935828E985A10AE02A6213402A642
S1132A00E49B5F4A97A7BD5B466AE426F2A6A4A7A7
S1132A10E4A6E49B5E4A97A6BD5B586AE426F235B9
S1132A2082BDD045CE2A4BA6094A81092304800AD7
S1132A3020F833C6A6C4978FA64A9790E6C814BE5A
S1132A4038863A9F93A6C81E979139225511EE777E
S1132A5033448800CCFFEEBBDDEEFF11BBDDAA00E2
S1132A6010203040507080006099009966999999BF
S1132A7011AA99B6BE68BBBE6F9BEDBBBE6EBBBE52
S1132A8071BBBE7039DE158612A7470FF08DE426A0
S1132A9024BDD0456C0926026C096C08CC26EBBD1C
S1132AA0D04BBD2B7CBDD060867F9759BDD012BD65
S1132AB057007E27A3B6C80481582603BDD0696A8F
S1132AC0472631860FA747B6BE68811E2426CCFF51
S1132AD0FE0DF02603CCFEFCBBBE5D0FF081012C85
S1132AE0028601B7BE5DFBBE5CF1BE5D2C03F6BE83
S1132AF05DF7BE5C96EE4C81962506C606BDD0BD3C
S1132B004F97EE860F8E2A8D7ED066BDD045300A53
S1132B10CEBE5CA680A7C01183BE7226F6BDD0458A
S1132B20A60981042232E608DD2B5D2712810222E8
S1132B30278ECC02BDD0A2BDD0C64A912C231996B3
S1132B402B8E2B5548483086EC81B7BE60F7BE5FAC
S1132B50EC84B7BE5CF7BE5D3926601E0F26601993
S1132B600C2430140A1E1E0F07BDD045300ACEBEF9
S1132B705CA6C0A7801183BE7226F6398ECC14BD24
S1132B80D0A5BDD0B4BDD045C1052414A609810E7D
S1132B902502C60581052508A60881032502C60568
S1132BA0C005D72C2A0150D72BE609CE2C22300A97
S1132BB0C1282304C01420F811832E242506335D74
S1132BC0A6C52031A6C53406E65EC41F962B3D3546
S1132BD0023D8900D62CE85E35042A09402706AB5D
S1132BE0C525062008ABC5250AA15F2402A65FA15E
S1132BF0C42302A6C4A78033C82B11832F8B25B806
S1132C006F80390119067A6B6362687A0D131616A0
S1132C10131B17097A1F161F19677A131419675A99
S1132C208E0A14140F0F0F0F0F0F0F0F0F0E0E0E2F
S1132C300E0E0D0D0D0D0D0E0E0E0E0E0E0D0D0DB8
S1132C400D0D0D0C0C0C0C0C0C0F0C8E030A09074B
S1132C50060505050504040404040404040404042A
S1132C600404040404040404030304030303030327
S1132C700303030304030E080C0A0A0A0A0A0A0AD5
S1132C800A0A0A0A0A0A0A0A0A0A0A0A0A0B0B0B9D
S1132C900B0B0B0B0B0B0B0B0B0B0B0B0B0B0B0B80
S1132CA00B8E0D281E1C1A1816141212100E0E0E5E
S1132CB00E0E0E0E0E0E0E0E0F0F0F0F0F0F0F0F28
S1132CC00F0E0E0E0E0E0E0E0E0E0E0E8E0C281E77
S1132CD01C1A181E14121012190C0C0C19190C0CB5
S1132CE00C12140E0E0E0E0E190E0E12190C0C0CE4
S1132CF00C190C0C0C12148E050908080707070799
S1132D000706060606050505050505050505050569
S1132D10050505050505050505050505050505055F
S1132D2005058E1950404040404028282626262676
S1132D302626262626242424242020202020202061
S1132D401E1E1E1E1E19191919191919198E060A83
S1132D5008080808080707070707070707070706FB
S1132D6006060606060606060606060606060606FF
S1132D7006060606060606068E14282020202020B5
S1132D8020201E1E1E1E1E1E1C1C1C1C1C1C1C1E69
S1132D901E1E1E1E1E1C1C1C1C1C1A1A1A1A1A1873
S1132DA01818180EA0FFB0B0B0B0B0B0B0B0B0B04A
S1132DB0B0B0B0B0B0B0B0B0B0B0B8B8B8B8B8B8DF
S1132DC0B8B8B8B8C0C0C0C0C0C0C0C0C0C08E0C05
S1132DD03010101010101010101010101010100FD0
S1132DE00F0F0F0F0F0E0E0E0E0E0E0E0E0E0E0EFA
S1132DF00E0E0E0E0E0E0E0E0E0E2844323232320F
S1132E00323232323232323238383838383838386E
S1132E1038383838383838383C3C3C3C3C3C3C3C0E
S1132E203C3C3C3C0F111622142000233C19230087
S1132E30231B1923002346192300230019230023ED
S1132E404B192300231E1B230023501E050F1919A1
S1132E501419001900141900190514190019001483
S1132E6019001900141900190014190019000F1978
S1132E700019000F010102020F03040303000303FE
S1132E8003050003030303080303030319030303F4
S1132E9003000303030300030303030A0101020203
S1132EA000030403031603030305000303030308D9
S1132EB003030303000303030319030303030003CE
S1132EC00303030A000102020103040303000303D2
S1132ED003051603030303080303030301030303A6
S1132EE003000303030319030303030A000506078E
S1132EF000070C080400080D081402030E0803025E
S1132F00080F080D01081008040108100819020828
S1132F1010080602000000000F000000001400006A
S1132F200000140000000014000000001500000060
S1132F30001600000000170000000019000103043F
S1132F40010400050501050005020105000505024F
S1132F50050005060105000505010500050201053A
S1132F60000505010000000000000A000000000C3C
S1132F70000000000C000000000C000700000C0121
S1132F800101010D010202020E0201018E985ACCC8
S1132F903603ED02ED88140F700F71CC307BDD72B7
S1132FA0CC4A7CED04A70A6F0BE70C6F0D0F870F5B
S1132FB0480F8D0F8E0F8A0F950FED860297EF0F36
S1132FC0F139965985012701394D2A049652200377
S1132FD0B6C8048E985ACE3031840F484833C6ECB4
S1132FE0C4DB66C1182506C1DF2202D7665F4756D7
S1132FF0D36481072506818C2202DD64EC422730EC
S11330001093722706DD720F710F70D6702617DECB
S1133010729671E6C626040F71E6C40C715A5858AC
S11330204FC335EBDD5C96704C810225014F9770E0
S1133030390000000000FF30800001307B000000F8
S113304000FF003071FFFF3071FF0130710000009C
S1133050000100307601FF30760101307600000077
S1133060000000000000000000000000000000005C
S11330700001020103000405040600070807090013
S11330800A0B0A0C0034463406E398023406201B6B
S1133090EC44A1E42415E1612411E3D802A16223E4
S11330A00AE16323063440ACE12604EEC426E1328F
S11330B06435C686019748DC5EDE6E8E9821BDD0ED
S11330C027262CDC5EDE6E8E9823BDD0272620DCDE
S11330D05EDE6E8E9817BDD0272614DC5EDE6E8E03
S11330E0981FBDD0270F4886018E30B37ED066CCA2
S11330F026D9BDD04B861B9759BDD060C607BDD01D
S1133100BDBDD024BD5B4CBDD045B6BDECBABE2818
S1133110261E86FF9759CC1C0A8E3C7EBDD01B868A
S113312028C6AAD7CFBD5F9986788EE3D37ED066B2
S1133130BDD045A60BB7BE5DB1BE5C2303B7BE5C74
S11331404FD6ED271EC0042B034C20F94D26067DD7
S1133150BE6F26014CBBBE6FA1881D2303A6881D2C
S1133160B7BE6FBD2B69BDD045E608261CCC1C201C
S11331708E3C77BDD01B864BC6AAD7CFD63FBD5F4A
S11331809986608E31897ED066963F8803BDD0488B
S1133190E60827F7973F7E27A3EC98023406868833
S11331A0A0E0BDD0428B061F8986D2A0E0BDD042EC
S11331B08B171E89396F476F4896592A04DC5220B1
S11331C006B6C804F6C8065446544684F0E647A733
S11331D047E14726546C48E648C1022704C4072641
S11331E04ED687C10424460D132744444434024474
S11331F0ABE0108E323731A681422433AEA4272FA0
S11332004FBDD0571F13BDD051AF47EC24C335AECB
S1133210ED02ED8814DC5EAB22A70AEB23E70C0C6D
S113322087CC26F0BDD04B20066F4820026A488622
S1133230018E31B97ED06600000000000032AD027C
S1133240FF000432C7020400040000000000003242
S1133250930004000033FF0000000C33DC00040082
S11332600800000000000032790204000034220249
S113327000000834450204000CAE47A60A8B038103
S11332808D225EA70ACC0100BD346B86018E327993
S11332907ED066AE47A60A800381072548A70ACCDC
S11332A0FF00BD346B86018E32937ED066AE47A696
S11332B00C8BFA81182534A70CCC00FFBD346B8627
S11332C0018E32AD7ED066AE47A60C8B0681E52218
S11332D01EA70CCC0001BD346B86018E32C77ED094
S11332E066869020028606E60C200AC6172002C6CF
S11332F0EBA60A202FED49BD34A3AE499691D69191
S1133300ED1FA70186028E330C7ED066968FAE49E0
S1133310A71FA70186018E331C7ED066968FA7D87F
S1133320097ED063C1EA2402C616810622014CED4F
S113333049BD34A39691D691AE49ED84968F84F01D
S113334034029691840FABE01F89ED89FF00860259
S11333508E33567ED066AE49968FD68FED89FF00A8
S1133360840FC40F34069691D69184F0C4F0E3E13F
S1133370ED8486018E337A7ED066968FD68FEDD813
S1133380097ED0637E32F5209BD72C5F4756DD2D16
S11333901F20AB0AEB0CA70AE70CDC2DE30AED0AAD
S11333A0E60CDB2CE70CC1EA22DDC11825D9818F9C
S11333B022D2810725CE20E2108E0005CCFF012009
S11333C0C8108E0000CCFFFF20BF108E0200CC017D
S11333D0FF20B6108E0205CC010120ADAE47A60A2F
S11333E08003E60CCB06810725CEC1E522CAA70AD5
S11333F0E70CCCFF018D7486018E33DC7ED066AE83
S113340047A60A8003810725B8E60CC006C1182523
S1133410B0A70AE70CCCFFFF8D5186018E33FF7EE7
S1133420D066AE47A60A8B03818D229EE60CC006A9
S1133430C1182596A70AE70CCC01FF8D2E86018EB4
S113344034227ED066AE47A60A8B03818D2284E6A1
S11334500CCB06C1E523037E33D3A70AE70CCC01CA
S1133460018D0886018E34457ED066DD88BDD08D01
S11334703450EE02EC048E9823BDD027261EAEE411
S1133480EE02EC048E9821BDD0272610AEE4EE02A5
S1133490EC048E9817BDD027260235D035508D0305
S11334A07ED063BDD015DC1BED849F1B0A873934A5
S11334B0769640BDD00F4A26FA8D6BBD26C935F6E7
S11334C0B6BDEDBDD02A1F898668BD5F9696404A79
S11334D0270DB6BE29BDD02A1F898672BD5F9639D5
S11334E08E2E0ECC1508BDD01B8E6E0EBDD01B10BB
S11334F08E3592B6BDEC2714810723028607972BDD
S1133500CC2E0EBDD0218B040A2B26F7B6BE28275D
S113351014810723028607972BCC6E0EBDD0218B16
S1133520040A2B26F7398E0616968FA7898A00A7D8
S1133530808C06EC23F58E0716D68FED84ED89007A
S1133540D5308901008C8F1623F139DE271183B31E
S1133550E42503CEB3A496923402109E93AEC12701
S113356021ECA48804C8041A10FDCA06D690F7CA30
S113357001EC22FDCA02EC04FDCA04C61AF7CA0013
S11335801CEF6AE426D73261DF2786028E354B7E34
S1133590D06603083596022200BB0BB0BB0BB0000B
S11335A020008808803080300808008808800301E3
S11335B035BE010635C1030635C7030635D9AAAAA7
S11335C0AAA0A0A0A0A0A000000A0000A0000A00D9
S11335D000A0000A0000A00000A000000A000000F3
S11335E0A000000A000000A000000A040C361B041E
S11335F00C364B040C367B040C36AB040C36DB0463
S11336000C370B040C373B040C376B040C379B044E
S11336100C37CB040C37FB040C382B0B2220000B8B
S1133620BBBB000B222B000022200000090000007D
S11336309990000093900000939000000300000014
S113364001000000990000000000000B2220000B84
S1133650BBBB000B222B000022200000090000004D
S11336600990000333930000099300009093000035
S113367090900009909000000000000B2220000BA5
S1133680BBBB000B222B000022200000090000001D
S113369009900003399300000993000090930000FF
S11336A090900009909000000000000222B000BB3E
S11336B0BBB000B222B0000222000000900000095A
S11336C099000009390000093900000030000000A9
S11336D090000000990000000000000222B000BB2E
S11336E0BBB000B222B0000222000000900000092A
S11336F09000003993300039900000390900000926
S113370009000009099000000000000222B000BB7B
S1133710BBB000B222B000022200000090000009F9
S11337209000003933300039900000390900000955
S1133730090000090990000000000000222000BBDD
S1133740B2BBB0B0B0B0B00B222B0000090000092E
S113375093990039939930309390303090903000A1
S1133760909000099099000000000000222000BB06
S1133770B2BBB0B0B0B0B00B222B000009000009FE
S11337809399003993993030939030309090000998
S1133790909000000090000000990000222000BBDF
S11337A0B2BBB0B0B0B0B00B222B000009000009CE
S11337B09399003993993030939030009090300071
S11337C09099000090000009900000BB222BB0B239
S11337D02222B0B22222B0002220000009000009F7
S11337E099990039999930309990303090903000FF
S11337F09090000990990000000000BB222BB0B209
S11338002222B0B22222B0002220000009000009C6
S113381099990039999930309990303090900009F5
S11338209090000000900000009900BB222BB0B2E1
S11338302222B0B22222B000222000000900000996
S113384099990039999930309990300090903000CE
S10E3850909900009000000990000017
S503011AE1
S9030000FC
