S03500005B6C77746F6F6C7320342E32345D202F55736572732F646176652F736F757263652F7265706F732F74656D706573745F616974
S11377A07E77A5792DBDD0600FF4BDD05477B98E06
S11377B077E44FBDD05A7ED0639651A7479651A126
S11377C04727050CF47E799D86088E77BD7ED066AA
S11377D08A778ACA8B168ACA8B958A778ACA8BCB90
S11377E08C070000BDD012BDDF400FF47E799D0FE1
S11377F0F4BDD060BDD030BDD012BDD05477B90F28
S11378000C0F0E86038E780B7ED0668E183AAF4925
S11378108E9AB0108E77D010AF47AF4B86018E781A
S1137820247ED06610AE4BCC0B0EEDA4C60DED2419
S1137830302AAF2230A900A4AF26AE49AF2810AE3B
S113784047EEA427335F86CE3410BD8D69DE153034
S1137850890200AF49351010AE4B312ACC0B1BBD49
S1137860D0B7AE4B3089013310AE47312220A83453
S113787002B6CC13840F35828DF52703BDD0128652
S113788007970C863F970E8DE610270F199659849B
S1137890FB9759DE15108E9AB010AF478609A74999
S11378A0200886088E78AA7ED06610AE47EC28CBD6
S11378B00DD7A7C00D30A4BD5B55CB0ED7A7302480
S11378C0BD5B5531A9013310AF476A4926D48620E0
S11378D08E87A67ED066863F970F8607970DBDD00C
S11378E054D0C3108E8CE85F8E395C86FDEEB127D0
S11378F005BD8D6920F7EEA12705BD8D6920F7BD73
S1137900D054792D8E7975108E980E8601DE15AFC0
S11379104910AF4BA74DAE49AF47AE47A68027F6F7
S1137920A7D80BAF47A64D8E791A7ED06696862AC5
S1137930108607970CBDD03984074C8E79417ED0D0
S11379406696848403270A0F0C86038E79517ED0B1
S1137950668E798BBDD039840FA686970C86078EE8
S113796079657ED0669686840327C20F0C86048EC2
S1137970792D7ED0663F3F3F372F271F170F07070C
S1137980070F171F272F373F3F3F00FFC0C71F07B1
S113799007C0C7FFC0C71607FFC0C7203796F48AC1
S11379A08097F48D0A8681BD5F998E83B2202ABDAB
S11379B0D060BDD0C0BDD012BDD024BDD0547EC8CF
S11379C0965984F397590F3F86CC978FBD26D2865C
S11379D0807E5F998DD98E7FA3DE15AF47AE47A613
S11379E080AF47810922088E7A0848AD9620EE813F
S11379F05F25068E79DD7ED066AE49BD5F93AF49C3
S1137A0086038E79DD7ED0667A937A9C7AB67AC1C3
S1137A107AC77A607A847A5A7A297A1C96F4847FAF
S1137A2097F41027FDC97E799B8E7A3186007ED02B
S1137A3057860EA74786108E7A3D7ED066BDD03914
S1137A4084068E7A5210AE86BD7B0F6A4726E67E88
S1137A50D06384F5851785408567BD7D6E97CF39E2
S1137A608614C6D81F01CC7406BDD01B96D0340230
S1137A70BD7D6EC6D80FD01F01BD7D6EBD5F96352E
S1137A800297D03996598A0C9759BDD030BDD06031
S1137A907E77A0BD7D5E10AF490FD039BD7D6E1FCE
S1137AA0898614ED498E14300FD0BD7D6E1F89C0B8
S1137AB01086747ED01BE64A8614CB0BED490FD09A
S1137AC039BD7D5E7E7B0FBD7D6E8E79DD7ED06699
S1137AD0108EFD80CCFF062007108E0280CC02069B
S1137AE0BDD06F10AF0E10AE47EB2CE70CAB2AA73E
S1137AF00AED04FC26D7ED02ED88149F17AF47A6C4
S1137B00498E7B077ED066AE47BDD0757ED0633488
S1137B101286008E7B1EBDD05A10AF073592BDD0A1
S1137B206FAF4B6FC8128D118D0FDE15AE4BEC028B
S1137B30ED88149F178D0220FC3506DE15ED4EBD31
S1137B407D6E488E7B58AE869F2BAE4B10AE49ADF2
S1137B509F982BDE156ED80E8DA07D317D4B7D193F
S1137B607D1F7D257D2B7CC17CB27CB97C8F7C877D
S1137B707C817C6F7C687C547C5C7C4E7C1F7C2686
S1137B807C377C057CCBD0637D417B907CD97BFDAD
S1137B903506EDC810BD7C546F8812BD7D5E10AFF4
S1137BA0C815BD7D5E10AFC817A60AE60CED04ED3E
S1137BB00686038E7BB97ED066AE4B8D2FEC04AB6C
S1137BC00EEB8810ED04ECC81510AE02BD1AC8EC1B
S1137BD004ED06A6C81827058D1ABDD0186AC81763
S1137BE026CF8D108D06BD7C5C6ED810EC0610AED1
S1137BF0027ED01EEC04A70AE70C6F0B39AF47BD19
S1137C007C547E3895BD7D5E8E7B358600BDD05A12
S1137C1010AF07EC4BED0BEC49ED096F881239BD41
S1137C20D0547AD02005BDD0547AD9EC4BED07BDA1
S1137C307D6EA7097E7C87BD7D6EBD7D5EE6C81224
S1137C402603A7C8126AC812270310AF4739BD7D9F
S1137C505E7E7B0FBDD075EC84DD1B39EC02ED88B4
S1137C6014DC17ED849F1739BD7D5E10AF4739BD15
S1137C70D07586A697A7CCFF00DD88BD5B437ED078
S1137C8063BDD0757ED0633510BD7D6E7ED0663504
S1137C9006EDC810BD7D5E10AFC81310AE49BD7DA2
S1137CA041A6C8138E7CAA7ED0666AC81426EC6EE0
S1137CB0D810BD7D5E10AF0E39BD7D5E10AF88104B
S1137CC039BD7D5E1F20E70CA70A39BD7D5E1F20EC
S1137CD0AB0AA70AEB0CE70C39A605A7C813864024
S1137CE0A7C815BDD0398407ABC813A70586018E74
S1137CF07CF57ED066AE4BBDD039840740ABC8134B
S1137D00A70586018E7D0A7ED066AE4B6AC815260D
S1137D10D2A6C813A7057ED063BD7D6E6EB804BD20
S1137D207D6E6EB806BD7D6E6EB808BD7D6E6EB894
S1137D300ABD7D5E10AF494FA74D8D14AE4BED02C9
S1137D4039A64D4CA12225F04F20EDBD7D6E20EAD1
S1137D503460DE1510AE49E6233DE3B435E034501B
S1137D608D0710AE81AF4735D0DE15AE473934509C
S1137D708DF7A68020EF5FEDC813A62C40201CC60B
S1137D8003EDC813A62C5F2012C606EDC813E62C1B
S1137D902008C609EDC813E62C504FEDC81535066A
S1137DA0EDC810CC7DF2EDC81710AE498E7DB4A697
S1137DB02D7ED066AE4BECC8158D2410AEC817319D
S1137DC021108C7DF32504108E7DEFA6A410AFC87E
S1137DD017ABC814BD7D386AC81326CD6ED81034CD
S1137DE0045F4756E30AED0A3504EB0CE70C39004F
S1137DF00100025F200AC60D2006C61A2002C6270B
S1137E00AEB80C3AAFC813A7C8153506EDC810862E
S1137E10088E7E177ED0668D086AC81526F16ED846
S1137E2010AE4B10AEC813EC218DB4A6A44444BDCF
S1137E307D383123E6A4C1FF2602313410AFC813C4
S1137E4039000E0C047DF37DF67DFA7DFE00181AD0
S1137E50CB010400100C047DF37DF67DFA7DFE0059
S1137E601800120C047DF37DF67DFA7DFE001800E7
S1137E70140C047DF37DF67DFA7DFE00161AC30C06
S1137E80047D767D7F7D897D9202083891030438D4
S1137E909324041148060426D50C047D767D7F7D49
S1137EA0897D9201024B060904114608044B08051A
S1137EB0064B0A0404000C0504001A01040DF42600
S1137EC0050CF47E799D0CF4CC10058E50EEBDD0DB
S1137ED01BD651E747867F8D558620A74A86088E94
S1137EE07EE57ED0668D399651A14726D06A4A2612
S1137EF0EC8ECC00BDD0A55D27DF8D47867D8D2E11
S1137F00860AA74A9651A14727048D3720AF8608D1
S1137F108E7F167ED0668D086A4A26E88D2520A8B5
S1137F2096F42B09B6C80481411027FB573934064F
S1137F3096D0D6CF3406EC62BD5F96350697D0D77F
S1137F40CF358634168E20EECC5005BDD01B359629
S1137F5020434F5059524947485420313938322030
S1137F6057494C4C49414D5320454C454354524F7D
S1137F704E49435320494E432E2020414C4C20521D
S1137F8049474854532052455345525645442E20A0
S1137F902022524F424F54524F4E3A2032303834FE
S1137FA022202001388007DD494E53504952454470
S1137FB020425920484953204E4556455220454EAB
S1137FC044494E4702515545535420464F52205080
S1137FD0524F47524553533C02494E2007AA323070
S1137FE0383407DD204D414E205045524645435418
S1137FF053205448452007AA524F424F54524F4EE3
S1138000533F0420020207FF4120524F424F5420A5
S11380105350454349455320534F20414456414E04
S11380204345442054484154024D414E2049532075
S1138030494E464552494F5220544F2048495320F7
S11380404F574E204352454154494F4E3D0202047E
S11380502007DD47554944454420425920544845AA
S1138060495220494E46414C4C49424C45204C4FC4
S11380704749433C025448452007AA524F424F54B3
S1138080524F4E5307DD20434F4E434C5544453F1A
S11380900202043007AA5448452048554D414E2059
S11380A05241434520495320494E45464649434998
S11380B0454E543C02414E44205448455245464F97
S11380C05245204D55535420424520444553545263
S11380D04F5945443D700136C007DD0383B7594FFE
S11380E0552041524520544845204C415354204882
S11380F04F5045204F46204D414E4B494E443D0282
S1138100026007FF44554520544F20412047454E07
S11381104554494320454E47494E454552494E47EB
S1138120204552524F523C02594F5520504F535301
S113813045535320535550455248554D414E2050B8
S11381404F574552533D07DD0202594F5552204DBA
S1138150495353494F4E20495320544F07AA2053A3
S1138160544F502054484520524F424F54524F4E82
S1138170533C0207DD414E442007AA534156452093
S1138180544845204C4153542048554D414E2046B7
S1138190414D494C593F0384770420051C7304580E
S11381A005187404580514757005107E7001588004
S11381B007330854484520464F524345204F462034
S11381C047524F554E4420524F56494E4702554E42
S11381D04954204E4554574F524B205445524D4913
S11381E04E41544F52200207AA0574765B475255FC
S11381F04E545C3A524F424F54524F4E5307332021
S11382005345454B20544F0244455354524F592033
S1138210594F553DFF01588007550385A1544845E2
S113822007AA0514772048554C4B20524F424F540F
S1138230524F4E532007555345454B204F5554023A
S1138240414E4420454C494D494E415445205448E3
S113825045204C4153542048554D414E2046414DF4
S1138260494C593DF905147E8001708007DD038572
S1138270BD54484507AA052C78205350484552451B
S11382804F49445320414E4420515541524B5320B1
S11382902007DD024152452050524F4752414D4D77
S11382A0454420544F204D414E5546414354555268
S11382B0450207AA053379454E464F52434552209D
S11382C0414E442054414E4B20524F424F54524F42
S11382D04E533DA005107E01588007FF424557418B
S11382E05245204F462054484520494E47454E4963
S11382F04F55530207AA05207A425241494E205253
S11383004F424F54524F4E5307FF2054484154207C
S1138310504F53534553530254484520504F5745EB
S11383205220544F20524550524F4752414D02481B
S1138330554D414E5320494E544F2053494E4953B5
S11383405445522007AA50524F47533D73052C7C85
S1138350800386CC016480042005107E044007DD80
S1138360415320594F55205354525547474C4520AB
S1138370544F20534156450248554D414E49545996
S11383803C204245205355524520544F2041564FDE
S113839049440207AA454C454354524F44455307A8
S11383A0DD20494E20594F555220504154483DD06C
S11383B0AD06038715FF09017E970718A015840FE2
S11383C0046002060B900BFF0BFF035004680203CA
S11383D00B800B8002060B400318052302000BFFE1
S11383E002060BE0063C02030B38053802030B209F
S11383F002060BE3062002000B3C02060BF10B30D5
S1138400052002000B2002060B900B9004800D0B3C
S1138410FF0B60131D05140A8413121B0514088432
S11384201A131D0514148421121B05140584281322
S11384301D05140A842F0BFF0BFF0B50130B101494
S11384400E843C0BE0120B0B140A84450BFF0BE368
S11384500B10130E80131808132008140384580BF0
S1138460FF0B441209C00BE01208FF0B9013041019
S113847013061013080117017E410718A01184ADDB
S11384801184C604280F017EB50200160004100BE7
S1138490300F017E530718A00B401004300610045F
S11384A010051303120F017EB9100B800C017E53CB
S11384B00718A00F0B7010041E0F017EB5020116E1
S11384C00004100B300C017E610718A00F0BD810AC
S11384D004150F017EB50202160004100B300F01C3
S11384E07E610718A00BC0100404050804100518C9
S11384F003010E84A5017E8B0786850B1016FE04EE
S113850002010B0816FD0402000B2016FE040202F1
S1138510140284FB0E858B017E8B0788900B091651
S1138520FE0202020B1216FE0202000B1216FE02DB
S113853002010B0B16FE0202001402851D0E858B30
S1138540017E8B0788BC0B1016FEFD02010B06167C
S1138550FEFD02000B1A16FEFD02020B0816FEFDBC
S1138560140285460E858B017E8B0788B10B041699
S1138570FEFE02010B0916FDFE02000B1816FEFE9C
S113858002020B1516FEFE14028574020016FC028C
S11385900B04020216FEFE0B20020016FC020B1254
S11385A00D017E6F0710C01585B1041C061004363A
S11385B00C0B7C16FE000B0B140A85B317017EA965
S11385C00788871185D61185E311860311861A0859
S11385D0FF400A02600C017EA5070AB40800C00A25
S11385E002600C017EAD0710B40F0B10100B1416B3
S11385F000FF18140385ED0F017EB1100800800AF6
S113860002700D017E930780870F0B10100B141856
S11386101405860D08FFA00B300D017E41070AB436
S11386200F0BC010042011868D050A0308041A16C6
S113863003FE0B0215868C19AABB28001186480874
S113864002001900AA2C000C017E410731BC020370
S11386500F0B0311866611867B0B041008020019A8
S1138660EE002C00000C017E410731BC0F0B04020C
S1138670031008020019EE002C000C017E410731A2
S1138680BC020308020019EE002C000C1A017E7DC6
S1138690070AA004101186A4050C041019BBBB38EA
S11386A001040B0D0186B0071AA40800600B400CEE
S11386B086B4010486B6090286BADDDDDDDDDDDDC2
S11386C0DDDAA0DDDDDDDDDDDDDDDAA0017E8F07B5
S11386D086C1020C0F0B481186ED0B0A1186F90BAB
S11386E00A1187070B10101900DDB8001B017E8FDB
S11386F00768C11900FF8D001B017E8F0772C1023C
S1138700041900AA91001B017E8F077CC10208197D
S113871000CC92001B017E410750681187391187F4
S11387204211875B11877411878D04090F017EB58F
S11387300200160005100B500C017E9707686A03AF
S1138740800C017E530748690F0B1010040A0F01B7
S11387507EB50201160004100B500C017E61074027
S11387606B0F0B2010040C0F017EB50202160002E1
S1138770100B500C017E410738680F0B3010040DAC
S11387800F017EB50203160005100B500C017E612B
S113879007306B0F0B4010040F0F017EB502041657
S11387A00002100B500CBDD03096598A049759BD65
S11387B0D05478D6BD8A3ABDD05487F8BD786F2698
S11387C015BDD0548A4F86FF8E87CE7ED06686FF35
S11387D08E799B7ED066BD88BF861CDE15A7479E1A
S11387E0E696E9BD8A19BD896C86048E87F17ED030
S11387F0666A4726EA7E88CDBD6F062713BE6F0FD3
S1138800108EB3EAEC81EDA1108CB41E25F6201273
S11388108ECC24108EB3EABDD0A8EDA1108CB41E6A
S113882025F5B6B41CC686108EB3EA8D15B6B41DF4
S1138830C696108EB4038D0AD6518670BD5F967E9F
S1138840D0633510DE15AF471F018619A749866628
S113885097CFA6A0BD5F93AF4A10AF4C86028E8817
S1138860647ED066AE4A10AE4C6A4926E56ED807DF
S113887020524F424F54524F4E3A20323038342017
S113888020434F50595249474854203139383220F7
S113889057494C4C49414D5320454C454354524F44
S11388A04E49435320494E432E2020414C4C2052E4
S11388B0494748545320524553455256454420BDD8
S11388C0894B108EB42686108D6A7E894B8DF0BD3F
S11388D0D0548A4FDE158E02C0AF4D8606A74B9E3C
S11388E0E696E9200A8606A74BBD896CBD89E61089
S11388F09EEBF6CB00D72BE121250EE021C11423FA
S1138900EED62BC1EC24E8200DE621C11E23E0F0B5
S1138910CB00C11E23D9BD89F8BD8A19DE156A4B67
S113892026C7AE4D301F1027F071AF4D86018E88DB
S1138930E57ED06634229EE6350234105FCE8CF498
S1138940BD8D693530CC0E1B7ED0B734168605C676
S11389500FDDE60FE80FEA867797E98EB5AE9FEB59
S1138960CC13AFED818CB5E625F93596340496E841
S113897084034A2B4E4A2B3B4A2B24DCE6C0202599
S113898004C10F224F96EA8B02811025080FEA8654
S113899015C60F203D97EAC60F86059BEA2033DCF7
S11389A0E6801025048105222B8605D6EA5058CB93
S11389B0CF201FDCE6CB20C1CF2519C6CF868590FA
S11389C0EA200FDCE68B10818525098685D6EA58D6
S11389D0CB0F0CE8DDE61F0196E980112502260283
S11389E0867797E9358434109EEB30028CB5E62502
S11389F0038EB5AE9FEB35903417AE9F98EB1A10EB
S1138A00BFCA04CC0A1FFDCA067FCA01CCB426FD26
S1138A10CA02861EB7CA0035973403AF9F98EB1A73
S1138A2010B7CA01BFCA04CC0A1FFDCA06CCB426BB
S1138A30FDCA02861EB7CA00358334328E8A70108E
S1138A408E9801A680A7A0108C980825F635B28EC2
S1138A509801AF498DE4AE4930018C980825038E06
S1138A609801AF4986FFA78486038E8A547ED06618
S1138A7007C01730C71F3F01399022572290215950
S1138A8021902143274F219021432105224D2290FB
S1138A902143210621422C90214321062142219089
S1138AA0C6214322052142219021442742219021BD
S1138AB04D2190234B2290022A432B900A224D22CF
S1138AC0900B224C22900C2E90A001399022572218
S1138AD09021592190214333432190214222112294
S1138AE04221902142211321422190C82142241085
S1138AF0214221902145220F214221902146220D1D
S1138B002242219021472F4321902159219022571D
S1138B102290013990A001399022572190215822A6
S1138B209021422750219021422105224F2190215A
S1138B30422106214F21902142210621432943212C
S1138B4090214221062142220722422190214221E2
S1138B50062142210921422190C5214222052142B8
S1138B6021092142219021432742210921422190B8
S1138B70214C210921422190224B2207224221909B
S1138B80012A43294321900A214E22900A224B2391
S1138B90900B2D90A00123902241229021432190FB
S1138BA0C4214322902144359021582290215921F7
S1138BB090C12144274D2290214322052F90214327
S1138BC02190C422412290012390A0013990225780
S1138BD02290215921902142284F2190214221069F
S1138BE0214F219021422106224C2290214221072B
S1138BF02E9021422190C821423790215822902260
S1138C00572290013990A003240E2490022242227C
S1138C100C22422290022144210C21442190C502BD
S1138C202242220C2242229003240E2490A00121ED
S1138C304C234C219002214C214C2190032157219B
S1138C409004215521900521432641264321900675
S1138C50214321042104214321900721432103219D
S1138C6003214321900821432341234321900921D7
S1138C704B21900A214921900B2143214321900C3F
S1138C802890A00D214521900C214621900B2147CD
S1138C9021900A214821900921452143219008214E
S1138CA04522432190082144210121432190082198
S1138CB04321022143219008214324432590082184
S1138CC04E2190C308284325900F21432190C30EC1
S1138CD021442190C40F214321901021422190115D
S1138CE021412190122290A0F019F01B8CF28C2EBD
S1138CF08C8300000A4790084B90064F90055190D2
S1138D000444224D900347224C900249244A900285
S1138D104A254890014C274690014D2844904D2700
S1138D20479048224226499049274B904A244D9027
S1138D3049274B904822422649904D274790014DA0
S1138D40284490014C274690024A25489002492421
S1138D504A900347224C900444224D9005519006BA
S1138D604F90084B900A4790A0346284F034024438
S1138D70444444AAE097DFA6E4840F3402484848F8
S1138D8048AAE097E08D0424FC35E2A6C44385C0DC
S1138D902702DFE49FDDA6C02A27852027031A01C6
S1138DA039851027058D5B1CFE39854027E8840F23
S1138DB097E1DFE2DEE48DDC0AE126F8DEE21CFE68
S1138DC03985602604308620CD3403841F1A10BFF1
S1138DD0CA0430868804B7CA078605B7CA06FDCA1E
S1138DE002A6618540270496DF200296E0B7CA01F7
S1138DF086125D27048A8020028A40B7CA003503A0
S1128E0020949EDD5D2706C6FF3089010053399B
S503016794
S9030000FC
