S03500005B6C77746F6F6C7320342E32345D202F55736572732F646176652F736F757263652F7265706F732F74656D706573745F616974
S113D0007ED1067EDE0F7ED3B67EDC117EDB9C7E77
S113D010DC137EDB7C7EDB037EDAF27EDADF7EDA13
S113D020BF7EDA827ED89E7ED7C97ED5F57ED5E2D4
S113D0307ED7A57ED7957ED6EC7ED6CD7ED6C87E0D
S113D040D6B67ED6AC7ED6997ED6A87ED3C77ED2FF
S113D050A77ED28F7ED2817ED25A7ED2437ED218D0
S113D0607ED1FF7ED1F37ED1E37ED30E7ED32B7EA1
S113D070D2FD7ED3067ED31B7ED3207ED2DA7ED22F
S113D080C27ED2E77ED2CA7ED2F27ED2D27EDB2F9D
S113D0907EDA9E7EDA617ED1967ED4FC7ED5037ED6
S113D0A0D5C07ED5127ED5237ED5217ED52B7ED5C7
S113D0B0397ED5377ED5E27EDE597ED65B7ED65567
S113D0C07ED18A7EDA0D7ED5D8EF01201E00FF01C5
S113D0D0200C00FF01202000FF03102400FF01208A
S113D0E02700FF01202D00FF02103500FF01203A28
S113D0F000FF01203E000034FF350034003CC80C22
S113D100C80EC804C8061AFF10CEBF7086981F8BBD
S113D1108601B7C9008ED0F64F5FED9808EC81ED1B
S113D12098068CD0FE26F186FFB7C80EBDD01286B5
S113D1303FB7C80E8E98006F80C639F7CBFF8CBFFF
S113D1407026F4CCA55ADD8586609741BDD099BD83
S113D150D0368D36BD6F03CCFFFFDD2FDD31860267
S113D16097408ECD00BDD0A21F8981202206C40F16
S113D170C10925044FBDD0AB9751BDD05477A086CB
S113D1802CB7C80E03591C00200CBDD033BD5F9CC6
S113D190BD5B407ED0308E98119F1596108102257C
S113D1A0FA4848489B424497420F10BDD6CD965941
S113D1B085042603BD5B499E33260C9E372717DC66
S113D1C0390F370F382006DC350F330F34D4592686
S113D1D0E6BDD05720E1DE1127136A44260BDF1584
S113D1E06ED802DE15A744AF42EEC426ED10CEBFC2
S113D1F07020A39E1510CEBF708D1D338420EA3499
S113D200128E9811AE84270E9C1527F8A60581016D
S113D21027F28D0420EE35923446CE9811ACC42604
S113D22018EC84EDC4A6062706DC1D9F1D2004DC33
S113D230139F13ED8430C435C6EEC426E08D001A66
S113D2401020FE3462DE1D2601BDD23F10AEC41094
S113D2509F1D8601A746A6E420113462DE1326032F
S113D260BDD23F10AEC4109F136F46AF42A7458690
S113D27001A744AE9F9815EF9F9815AFC430C435ED
S113D280E23442EE633710EF6386008DCD35C2344D
S113D290069E1B2603BDD23FEC84DD1BC6026F85B0
S113D2A05CC11826F93586ACC4261010AED410AF74
S113D2B0C4109E1B9F1B10AF8435F0EEC426E8BD3E
S113D2C0D23F3470CE98217ED04E3470CE98237ED7
S113D2D0D04E3470CE981F7ED04E3406BDD051DC73
S113D2E0219F21ED8435863406BDD051DC239F2354
S113D2F020F13406BDD051DC1F9F1F20E63406BD4B
S113D300D051DC1720DD3470CE98177ED04E108EAD
S113D310AED9BDD054D36810AF09398DE97ED0158C
S113D32034108DF7AE06BDD05D359034269E1B2794
S113D3302E9E13272A4FEE643710BDD0573184BD7B
S113D340D06FECC1ED8814ED023706ED08EF6433BD
S113D350A4EF06AF474F5FED8810ED0E4335A6EE00
S113D360643348EF644F35A696F226470CF28603E1
S113D370AE4930892857AF49A74786088ED3827EA5
S113D380D066B6C80481A1270A815827ED6A4726CA
S113D390E9201E8603A74786088ED39F7ED066B6F3
S113D3A0C804814226036ED80981A127EA6A472668
S113D3B0E60FF27ED06334071AFF863FB7C80E53D8
S113D3C0C43FF7C80E358734171F01A6849156252C
S113D3D00D9756301E1A109F54CC0101DD57359716
S113D3E09657271E0A57261A9E540A58260E3003AB
S113D3F09F54A6842604975620089758EC01975703
S113D4008DB4B6C80C85402704863C974B964B27B1
S113D410020A4B964C27020A4C964E27020A4E9655
S113D4204D27020A4D96592A2496CE266A96319A99
S113D4303243D631D732F6C804D7319431843027F9
S113D4400C8E26CC851026038E26CF8D3B96CE26B9
S113D45046962F9A3043D62FD730F6C80CC43FD700
S113D4602F952F27328E0078301F26FCF6C80CD457
S113D4702FD72F942F27208ED49630024424FBAE2E
S113D480848D058601A74239CE9833ECC427023334
S113D49044AFC46F426F43390000F003D615E3DF95
S113D4A0D60CD61E0000000020524F424F54524F5B
S113D4B04E3A20323038342028544D292020434F0E
S113D4C05059524947485420313938322057494C31
S113D4D04C49414D5320454C454354524F4E4943CA
S113D4E05320494E432E2020414C4C20524947485A
S113D4F05453205245534552564544203406CC01DA
S113D5003C20053406CC03349745B7C900F7C80757
S113D5103586A601840F3402A68148484848ABE00A
S113D520398DEF34028DEB1F8935823402A7014413
S113D530444444A78135828DF234021F988DEC3522
S113D5408234129B51192402869997518ECD00BDC5
S113D550D0AB35923416C603200A3416C602200412
S113D5603416C601BDD0BD588ECC043ABDD0A5BD7D
S113D570D0B4964F3404ABE4974F9650ABE0975039
S113D5808ECC10BDD0A5BDD0B43404A1E0240235A6
S113D590968ECC0CBDD0A5BDD0B48D243402D7500A
S113D5A08ECC0EBDD0A5964F8D388D144D27040F0B
S113D5B0500F4FABE019C604BDD0BABDD541359666
S113D5C034045D26034F35841E8986998B0119E046
S113D5D0E424F9EBE039D83E34041F898D041F9804
S113D5E0358434024FC11025068B0AC01020F6344E
S113D5F002EBE0358234041F894FC10A25078B10E2
S113D60019C00A20F53404ABE01935848E984C1007
S113D6108ED56020108E984D108ED55420078E988C
S113D6204E108ED55A964B2627A68426238616A7F7
S113D6308410AF49860A8ED63C7ED066964B26105F
S113D6408605D684C4073DC3D0CEBDD04BADD80922
S113D6507ED0635E313416860120023416C40F581E
S113D660340458EBE08ECCFC3ABDD0A53404BDD0D4
S113D670A53404BDD0A53404ABE419A7E4A661899C
S113D6800019A761A662890019301ABDD0AB350410
S113D6903502BDD0B1350235963402963F8EBDE4D5
S113D6A04A27038EBE203582340220F134041F89B8
S113D6B08D1B3D4C358434028D13A1E42303442097
S113D6C0F94D26014C3261398D03D686393404D69E
S113D6D08486033DCB11968644444498864406854B
S113D6E00686DB86D985D7849684358434564F5F85
S113D6F08EA9E0CE976F9F13300FAF118CB0D9264F
S113D700F7ED84DD118EB0E89F1D30881FAF88E1EE
S113D7108CB33526F5ED848E98119F15C6071F012D
S113D720AB843088108C893525F6A7C9018435D699
S113D730BDD06086FF975986018ED73F7ED066BDE7
S113D740D012BD5F9CC67FD70110BED5D631A5A629
S113D750A0272C81022609B6C8048540273020EF73
S113D76081012606AEA10FD020E58B2ECED74F34F3
S113D77040FED653F6D7ED33C533C533C56EC486E4
S113D780018ED7877ED066B6C804854026F1BDD009
S113D790126E9FEFFE8EDA51CE9800C610A680A7B7
S113D7A0C05A26F93934171AFF8E99009F1B308806
S113D7B018AF88E88CA9C826F54F5FED84DD21DD1C
S113D7C017DD19DD23DD1F3597DD7CE3C4DD7E2005
S113D7D017EC042713917E240FD17F240BE39802C6
S113D7E0917C2304D17D2206AE8426E53976DF823E
S113D7F00D48260610AE8816260310AE02A3A41008
S113D8009F2DDD2B4F5FDD76DD78DC2BD07D22056F
S113D81050D7772002D779907C2205409776200252
S113D8209778DC2BE3A4D07F22015F907E22014F06
S113D830DD80ECA493769380DD74A6C4977BD679BF
S113D8403DEE4233CBA6A4977AD6773D10AE223173
S113D850AB967631A6967833C6D6745AA6C5272CCD
S113D860A6A5272831A51F20DE2DA34210AE04E073
S113D870C4820025083121E0C4820024F8EBC41FCF
S113D880985F33ABDFA6AD98088601395A2ACDDC00
S113D8907A31A633C50A7526C0DE827ED7E8BDD0AC
S113D8A054D9DFBDD054D9D2BDD054DA0DBDD05433
S113D8B0D981BDD054D9AEBDD054D98E39010C28EC
S113D8C0261A1B250C1B250C242114212624212077
S113D8D0110C04210A0602010C581617251B1920E5
S113D8E017160C172A151E27251B28171E2B0C1874
S113D8F02124010C68291B1E1E1B131F250C171E37
S113D9001715262421201B15250C1B20150F020199
S113D9100C78142B0C1727191720170C220F0C1C2A
S113D9201324281B250C1320160C1E13292417203E
S113D93015170C170F0C16171F132402010CA8152A
S113D94021222B241B191A260C030B0A040C291B55
S113D9501E1E1B131F250C171E1715262421201B02
S113D96015250C1B20150F010CB8131E1E0C241BAF
S113D970191A26250C2417251724281716001722F0
S113D98030BDD9E8D98A980B00083807C000BDD942
S113D990E8D997980C0002C0C0D0E0F0F8FABA7A3F
S113D9A03A342D1F170F0706050403020100BDD9E1
S113D9B0E8D9B7980E0001C0C1C2C3C4C5C6C787A1
S113D9C0874747070747478787C7C7C6C5C4C3C232
S113D9D0C100BDD9E8D9DB980F000607072F00BDA9
S113D9E0D9E8DA2C980D0002AEE1EC81ED47EC8128
S113D9F0ED4BEC81ED496F49AE47E6496C49A6858C
S113DA0027F4A7D80BA64A8ED9F87ED06686FF974E
S113DA100A86028EDA197ED0669684841F8EDA2CEA
S113DA20A686970A86068EDA0D7ED06638393A3B8A
S113DA303C3D3E3F372F271F1747478787C7C7C639
S113DA40C5CCCBCADAE8F8F9FAFBFDFFBF3F3E3C90
S113DA5000000717C71F3F38C0A4FF3817CC8181C7
S113DA600734071A10FDCA04ECA48804C804FDCACC
S113DA7006EC22FDCA02D62DF7CA018612B7CA00E7
S113DA80358734071A10FDCA04ECA48804C804FDC1
S113DA90CA06EC22FDCA028602B7CA0035873407DB
S113DAA01A10FDCA04ECA48804C804FDCA06EC22BA
S113DAB0FDCA02D62DF7CA01861AB7CA00358734C3
S113DAC0071A10FDCA04ECA48804C804FDCA06ECB5
S113DAD022FDCA02CC1200F7CA01B7CA0035873446
S113DAE0071A10BFCA048804C804FDCA06CC000083
S113DAF020DF3447EE02ECC48804C8041A10FDCABF
S113DB000620583447EE8814ECC4EE428804C80456
S113DB101A10FDCA06EC04FDCA04FFCA02CC1A009E
S113DB20F7CA01E688122A028A20B7CA0035C73428
S113DB3047EE8814ECC4EE428804C8041A10FDCAE7
S113DB4006EC04FDCA04FFCA02CC1A00F7CA01E6B7
S113DB5088122A028A20B7CA00EE02EF8814EE4225
S113DB60FFCA02A60AE60CED04FDCA04860AE60B07
S113DB70E788122A028A20B7CA0035C73476CE98BD
S113DB80008E00001F121F103636363636363636F3
S113DB90363636101183000026EE35F634760CF056
S113DBA0443402860024085849584958495849BD04
S113DBB0D045DD2BC603E0E0A6859B2C19A7855A2A
S113DBC02B0EA685992B19A7858600972B5A2AF226
S113DBD0DC4627383104EC8410A3A42605EC02109B
S113DBE0A3222528A6229B4719A722A621994619D4
S113DBF0A721A6A4890019A7A4CCD0C9BDD04BBD28
S113DC00D0456C08BD26C9C605BDD0BD8D0335768B
S113DC1039963FC611913F2602C6AA3402D7CF4A8D
S113DC2026088E180ECEBDE420068E580ECEBE20D9
S113DC30CC1506BDD01B3089FD000FD6A6C4840FB9
S113DC40BD5F9FA641BD5F9FA642BD5F9F0CD6A648
S113DC5043BD5F9F3582B6C80E86019A45B7C90099
S113DC60B6CB0081802532964326200C430C10BD90
S113DC70D3E0BD26C0B6CB007FCA01D645C5022776
S113DC800C8B109741BDDCFFBDDD4E2054801097F6
S113DC9041BDDD90BDDD3E2048D64327440F430CF3
S113DCA010C639F7CBFF8104221BCEC010DC0A9EBC
S113DCB00C109E0E3636DC049E06109E083636DCAA
S113DCC0009E0236160C44BDD44D7FCA01D645C50C
S113DCD0022708BDDCE7BDDD3E2006BDDD60BDDDFD
S113DCE04E9645B7C9003B9659850826119E1727BD
S113DCF00DEC04D1412203BDDDCEAE8426F339966A
S113DD0059850826729E172734EC0AEE02E30E8129
S113DD1007250AABC481902204A0C4ED0AEC0CE3ED
S113DD2088108118250AAB4181EB2204A041ED0C37
S113DD30EC04D1412303BDDDCEAE8426CC39965903
S113DD40851026098E985ADC5ED1412311399659E3
S113DD50851026F98E985ADC5ED141227139206EE5
S113DD609659850826109E17270CEC04D1412302EE
S113DD708D5CAE8426F43996598502261296448425
S113DD8007260C9E172708EC048D43AE8426F83929
S113DD909659850826E19E172733EC0AEE02E30E16
S113DDA08107250AABC481902204A0C4ED0AEC0CBF
S113DDB0E388108118250AAB4181EB2204A041EDD0
S113DDC00CEC04D14122028D05AE8426CD39FDCA66
S113DDD004EE881437268804C804FDCA0610BFCA96
S113DDE002861AE688122A028A20B7CA00A60AE620
S113DDF00CED04FDCA04EE02EF8814EC42FDCA02E5
S113DE00860AE60BE788122A028A20B7CA00393448
S113DE10568EDA053406C6FED445D745F7C9005FE9
S113DE206A61A661EAC64A2AFB863733C901006AD9
S113DE30E426EFA189BEEE271296868101220C34D6
S113DE4004D68586981F016A84350486019A45970D
S113DE5045B7C9005D326235D634363416D645C46A
S113DE60FED745F7C900E684E7A0308901004A26B9
S113DE70F5AE623001AF62A6E46A6126E9326496C7
S113DE80458A019745B7C90035B620524F424F54D1
S113DE90524F4E3A20323038342028544D29202015
S113DEA0434F50595249474854203139383220574A
S113DEB0494C4C49414D5320454C454354524F4ED7
S113DEC049435320494E432E202020414C4C20529C
S111DED0494748545320524553455256454441
S113EFF0D106D106D106D106DC56D106D106D106FA
S50300EF0D
S9030000FC
