S03500005B6C77746F6F6C7320342E32345D202F55736572732F646176652F736F757263652F7265706F732F74656D706573745F616974
S10BE9C8E9CCEC34EA2AEA353B
S113E9D0EA40EA4BEA56EA61EA6CEA77EA82EA8DAF
S113E9E0EA98EA9EEAA4EAAFEAB5EAC5EACBEAD62F
S113E9F0EAE1EAECEAF7EB02EB0DEB18EB23EB2E82
S113EA00EB39EB44EB4FEB5AEB6AEB75EB80EB8B9A
S113EA10EB96EBA1EBACEBB7EBC2EBCDEBDDEBE8AC
S113EA20EBF3EBFEEC09EC14EC2903FFF0F0F0F04F
S113EA30F0F0F0FFF0030F000F000F000F000F00C5
S113EA4003FFF000F0FFF0F000FFF003FFF000F030
S113EA500FF000F0FFF003F0F0F0F0FFF000F00032
S113EA60F003FFF0F000FFF000F0FFF003FFF0F020
S113EA7000FFF0F0F0FFF003FFF000F000F000F012
S113EA8000F003FFF0F0F0FFF0F0F0FFF003FFF010
S113EA90F0F0FFF000F000F001000000000001F0D1
S113EAA0F0F000F003000000000000FF000F000180
S113EAB000000000F00500F0000FFF00FFFFF00071
S113EAC0F00000F0000100F000F00003000000007E
S113EAD0FFF00000000003FFF0F0F0FFF0F0F0F0B2
S113EAE0F003FFF0F0F0FF00F0F0FFF003FFF0F0B0
S113EAF000F000F000FFF003FF00F0F0F0F0F0F0A1
S113EB00FF0003FFF0F000FF00F000FFF003FFF050
S113EB10F000FF00F000F00003FFF0F000F0F0F070
S113EB20F0FFF003F0F0F0F0FFF0F0F0F0F003FF8E
S113EB30F00F000F000F00FFF00300F000F000F0F2
S113EB40F0F0FFF003F0F0F0F0FF00F0F0F0F0036D
S113EB50F000F000F000F000FFF005FFFFF0F0F02F
S113EB60F0F0F0F0F000F0F000F003FFF0F0F0F05F
S113EB70F0F0F0F0F003FFF0F0F0F0F0F0F0FFF060
S113EB8003FFF0F0F0FFF0F000F00003FFF0F0F00E
S113EB90FFF000F000F003FFF0F0F0FF00F0F0F001
S113EBA0F003FFF0F000FFF000F0FFF003FFF00FC0
S113EBB0000F000F000F0003F0F0F0F0F0F0F0F0A1
S113EBC0FFF003F0F0F0F0F0F00F000F0005F0009C
S113EBD0F0F000F0F0F0F0F0F0F0FFFFF003F0F0F0
S113EBE0F0F00F00F0F0F0F003F0F0F0F0FFF00FB1
S113EBF0000F0003FFF000F00F00F000FFF0030F20
S113EC0000F000F000F0000F00030F0000F000F02F
S113EC1000F00F0007000F00000000F000FF00FFED
S113EC20000000F000000F00000300F000F00F00EF
S113EC30F000F000EC92ECA5ECB8ECCBECDEECF1DF
S113EC40ED04ED17ED2AED3DED50ED5DED6CED7944
S113EC50ED86EDA5EDB2EDBFEDD2EDE5EDF8EE0BF1
S113EC60EE1EEE31EE44EE57EE6AEE7DEE90EEA32C
S113EC70EEB6EEC9EEDCEEEFEF02EF15EF28EF3B58
S113EC80EF4EEF61EF74EF87EF9AEFADEFBAEFC796
S113EC90EFDA0599999090009090009090009090F0
S113ECA0009099999005009900000900000900005E
S113ECB009000009000999900509999000009099AC
S113ECC0999090000090000099990005099990008E
S113ECD000900999900000900000909999900590F7
S113ECE0000090090090090099999000090000091A
S113ECF000059999009000009999900000900000F7
S113ED009099999005999900900000999990900094
S113ED10909000909999900599999000009000091D
S113ED20000090000900009000000599999090005F
S113ED309099999090009090009099999005999944
S113ED4090900090999990000090000090099990FB
S113ED500300000000000000000000000002FF00AB
S113ED60FF00FF00FF000000FF00FF0002000000A2
S113ED70000000FF00FF00F000020000000000009F
S113ED800000FF00FF0009FFFFFFFFF0FFFFFFFF90
S113ED90F0FFFFFFFFF0FFFFFFFFF0FFFFFFFFF0BB
S113EDA0FFFFFFFFF0020000FF00FF000000FF0074
S113EDB0FF00030000000000002220000000000506
S113EDC06666606006606666606006606006606035
S113EDD0066005666600600600666660660060663A
S113EDE00060666660056666606600006600006630
S113EDF00000660000666660056666006600606680
S113EE0000606600606600606666000566666060B5
S113EE10000066666066000066000066666005665F
S113EE20666060000066666066000066000066005A
S113EE300005666660660660660000660660660039
S113EE40606666600566006066006066666066000F
S113EE50606600606600600406600006600006608C
S113EE600006600006600006600005000060000007
S113EE706000006000006066006066666005660011
S113EE8060660600666000666000660600660060F4
S113EE9005600000600000600000600000666660BD
S113EEA06666600566666060606060606060006001
S113EEB06000606000600566666060006066006017
S113EEC066006066006066006005666660600660F5
S113EED06000606000606000606666600566666091
S113EEE060006066666066000066000066000005FB
S113EEF066666066006066006066006066060066BE
S113EF0060600566660060060066666066006066AE
S113EF10006066006005666660600000666660000A
S113EF2000606600606666600566666000600000FA
S113EF30660000660000660000660005600660600A
S113EF40066060066060066060066066666005666E
S113EF50006066006066006066006006060000608F
S113EF600005600060600060600060606060606078
S113EF706066666005600060060600006000006070
S113EF800006060060006005660060660060666654
S113EF9060006000006000006000056666600006B6
S113EFA0000060000600006666606666600300F0AC
S113EFB00F00F000F0000F0000F003F0000F00005D
S113EFC0F000F00F00F00004000F0000F00000F06B
S113EFD0000F00000F0000F000000500F0000FF02B
S110EFE000FFFFF00FF00000F00000000043
S503006399
S9030000FC
