S03500005B6C77746F6F6C7320342E32345D202F55736572732F646176652F736F757263652F7265706F732F74656D706573745F616974
S113DF403506DE15EDC819BDD054E26FBDE1E38698
S113DF509997D886CC97D9108ECF6EDE158607A7F1
S113DF6047CC0502ED48CC0934ED4A8601A74D8E15
S113DF701A35BDE05C86AA97D886DD97D9108ECD78
S113DF805ABDE0E98ECD5EBDD0A2301C813A260593
S113DF908CCD3824F2300234108E157A8631BD5F70
S113DFA093865CBD5F9330890300108ECD381E12BA
S113DFB0BDD0A21E12BD5F9310ACE423F1308902E0
S113DFC000108ECD60BDE1379F2B8ECC16BDD0A244
S113DFD0810327239E2B30890500865BBD5F931048
S113DFE08ECD32C6031E12BDD0A21E12BD5F935A3F
S113DFF026F3865CBD5F93DE158605A747CC0C032C
S113E000ED48CC0728ED4A8602A74D8E1488108E61
S113E010CD688D48866EBD5F99BDD054E2E0BDD019
S113E02054E29ABDD054E2E9BDD054E2F5DE15863F
S113E030C8A74786038EE03B7ED0666A4726F486EF
S113E040FFA74786048EE04B7ED066B6C8068403DD
S113E050BAC80427046A4726EA6ED8193506DE15BD
S113E060EDC812AFC816AF4E10AFC810A648A74CE3
S113E0708604A7C818AE4E10AEC8108D6CE64D8647
S113E0806FBDE16E3410C6031E12BDD0A21E12BDB8
S113E090E1845A26F33510A647C6033D545C1F9805
S113E0A0E647C10526014C5F308BBDE137A64D8B99
S113E0B00119A74D1F10A6C816EB4A1F016A4C2769
S113E0C0136AC81826B5AF4E10AFC81086018EE08B
S113E0D0707ED066ECC816AB4BA7C8161F01A648C5
S113E0E0A74C6A4926DB6ED812343631268EBDE43D
S113E0F08D1C270CD6405A270F8EBE208D10260863
S113E1008D23270496D9200296D897CF35B634208C
S113E1101E12BDD0A2840FC604A1A02606BDD0A2A3
S113E1205A26F635A03121302EC607A680A8A08431
S113E1300F26035A26F5391E12BDD0A2BDD0A51E46
S113E14012840F26075D26048663200D34201F02E7
S113E1508662BDE16E3520862A34021E12BDD0A827
S113E1601E1234201F02A6628D04352035823452DB
S113E1708E5F99A647810727038E5F961F1335127A
S113E180ADC435C034528E5F93A647810727ED8E08
S113E1905F9020E820524F424F54524F4E3A203263
S113E1A03038342020434F50595249474854203185
S113E1B03938322057494C4C49414D5320454C4540
S113E1C04354524F4E49435320494E432E2020413D
S113E1D04C4C2052494748545320524553455256BB
S113E1E04544203506DE15ED4F8E9800CC0000ED39
S113E1F0818C981025F98E060DAFC8178611A7C813
S113E200158E3E7DAFC811108E597F10AFC813868E
S113E21002A7C816AEC81110AEC813A6C815BDE330
S113E22013ACC81727323089FEFE31A901028D17BD
S113E2306AC81626E9A7C815AFC81110AFC8138657
S113E240018EE20F7ED0663404E6C817C1062606A6
S113E2508011260286883584AEC8178C060D2703E4
S113E2606ED80F8E0E1DAFC8176FC8157EE2018ED3
S113E270E2FEA6808D13AF4786038EE2807ED066D1
S113E280AE478CE31325EB20E6108E9801E621E7D8
S113E290A0108C980825F6A7A439108E980A8EE24F
S113E2A0C2CCE2C2ED4B10AF492002AE4BAF47AE39
S113E2B047A68027F6A7D809AF4786048EE2AF7E2B
S113E2C0D066070707070707070757A7FFFFA757E2
S113E2D000FFFFFFFFFFFFFFE4D2C0C0C0D2E40095
S113E2E08EE2C9108E980920B88EE2D8108E980C50
S113E2F0CCE2D120AF8EE2D1108E980D20F2372FD0
S113E300271F1747478787C7C7C6C5CCCBCAC0D006
S113E3109838333436DE1584F0A74BA6E4840FA76F
S113E3204C1F10A749E7471F20A74AE748E0475674
S113E33024026A48A6478D3B4C8D4AA6488D344A30
S113E3408D43A6498D0B8D17A64A8D054A8D103530
S113E350B634168D145CA64BA7815A26FB35963429
S113E360168D063001A64C20EFE6471F01E648E073
S113E37047543934168D165CA64BA78430890100A6
S113E3805A26F7359634168D04A64C20ED1F89A61F
S10BE390491F01E64AE0493986
S5030046B6
S9030000FC
