S03500005B6C77746F6F6C7320342E32345D202F55736572732F646176652F736F757263652F7265706F732F74656D706573745F616974
S113E3D07EE5F57EE6F77EE8A57EE4337EE4137EF3
S113E3E0E3E28618A747863FB7C80E86088EE3F394
S113E3F07ED066B6C80C850827166A4726ED108EAF
S113E400CD328EE46CC617BD6F0CBDE5BC7FC80E63
S113E4107ED063108ECD68C608BDE5E3A826840FC0
S113E42027035A270E8639B7CBFF312E108CCF6EB7
S113E43025E7398639B7CBFF8EE46C108ECD32C612
S113E44092BD6F0C8EE4FE108ECE56C68CBD6F0C42
S113E450BDE5BC108ECD68BDE5DB8639B7CBFF3199
S113E4602E108CCF6E25F0865D7E5F9942494C5705
S113E470494C4C593A454C4B545249583A3A3A3A19
S113E4803A3A3A00151782564944001221454B493D
S113E490440012213544524A000521274C454400CA
S113E4A005021845504A000412554A455200041208
S113E4B0504B4944000319204D4C4700031919538C
S113E4C0535200026645554E41000266354A525386
S113E4D000025250434A4D000241104B4A4600028A
S113E4E030204D5253000220355047440002109012
S113E4F04E4A4D000209654E484400020960444FEB
S113E5004E000182805649560001828047575700C9
S113E510018105435242000180554D44520001756A
S113E5206542414300017256573A52000170704DE2
S113E530505400016060535545000155204D4F4D26
S113E540000144804441440001447953464400019D
S113E5504478414B440001447743574B0001333026
S113E560544D4800013270454A5300013120524154
S113E570590001306547415900012965524B4D004E
S113E580012855434E53000127553A3A3A000100F9
S113E59000C001011B01010200C001FF3C01FF009A
S113E5A001200001C03601603D020A1102403E0014
S113E5B034348EE58AC607BD6F0C35B434028D053C
S113E5C0B7CD60358234108ECD324FAB8430018CA0
S113E5D0CD6027F98CCD6826F2359034028D04A7DE
S113E5E02635823424C60E4FC1082702ABA431213C
S113E5F05A26F535A486323402108ECD688DE4A8EF
S113E60026840F270FBDE6CC7FCD007FCD016AE4C1
S113E610271220E98603C6048D6825E9312E108C63
S113E620CF6E25D935028EE495108ECF6EC646BDC9
S113E6306F0C8D91B8CD60840F27028D0F108ECD95
S113E640328617C6048D3B24028D01398ECD38865F
S113E6503ABDD0AB8CCD6025F88ECD68108ECD3808
S113E6608606BDE6EC108ECD32BDE6EC8ECD6E1086
S113E6708ECD608608BDE6ECBDE5BC108ECD687E0F
S113E680E6CC3416C639F7CBFF1F21BDD0A5C14156
S113E6902404C13A2632C15A222E4A26EEA661BD6E
S113E6A0D0A5C40FC10922204ABDD0A53404C40F8B
S113E6B0C10935042212C4F0C199220C4A26EA1C6D
S113E6C0FE8639B7CBFF35961A0120F53436302E45
S113E6D08CCF6E240F860E8D13312E300E8639B7F3
S113E6E0CBFF20ECBDE5B0BDE5DB35B63436E680C6
S113E6F0E7A04A26F935B6BDD060BDD012BDD033EF
S113E700BDD0998EBDE4C6018D20D6405A2718BDD0
S113E710D012B6C8062A03BDD09C8EBE20C6028D78
S113E72009BDD012BDD0997E77A0352010BFB3E4C7
S113E730BFB3E8D73FBDE90E245BBDE8B5108ECD6D
S113E740688ECF60BDE88F8ECD60108ECD6E86084A
S113E750BDE6EC8ECD32108ECD688606BDE6EC109B
S113E7608ECD68BDE5DBBEB3E8108ECD60C604BDBA
S113E7706F0CBDE5BC8EE58A108ECD32C603BD6F2D
S113E7800CBDD0128660B7B3E68ECC16BDD0A5C141
S113E7900327422022BDE91B2509BDE93825046E63
S113E7A09FB3E47FB3E6CCE591108CCF6E2603CC07
S113E7B0E599BDE971865FD63FBDD012BD5F99CCA6
S113E7C03A3AFDB3EAB7B3ECCC03008E4680108E20
S113E7D0B3EABD6F09BDE91B24068ECFECBDE87515
S113E7E0BDE93824437DB3E6271C8EB3EA108ECDF1
S113E7F032C603BD6F0CBDE5BC86058D2F24291FD1
S113E80012BDE6CC2012BDE8303401341010ACE166
S113E81022028D6135012410BDD0128664BD5F993A
S113E82086608EE8287ED0666E9FB3E43426200C82
S113E83034268ECD328D24860425014C972B8ECD23
S113E840688D1824040A2B270E300E8CCF6E25F108
S113E8508ECF601CFE35A61A0135A63410108EB377
S113E860EAC603BDD0A2A1A026075A26F61A01358E
S113E870901CFE35903420BDE88F8EB3EAC603BDEC
S113E8806F0CBEB3E8C604BD6F0C35207EE5DB34E7
S113E890301F1210AC62270B3032860EBDE6EC310D
S113E8A03220F035B03506FDB3E4C6018D07BDE571
S113E8B0BC6E9FB3E4352010BFB3E64F1F02CCE516
S113E8C099BDE9718ECC16BDD0A5BDD012C1032669
S113E8D00ED63F865FBD5F9986038E4680200D86E7
S113E8E05EBD5F991F98BDD0C68E2D80108EB3FE7D
S113E8F0C63AE7A2108CB3EA22F85FBD6F098EB363
S113E900EA108ECD38C614BD6F0C6E9FB3E634305A
S113E910108ECD60BEB3E88D3835B03410108ECF74
S113E92074BEB3E88D2B250C312E108CCFFA25F450
S113E9301CFE3590313A35903410108ECD60BEB344
S113E940E88D0E25EF312E108CCF6025F41CFE359A
S113E9509034361E12C604BDD0A2C1042602840F10
S113E960A1A0220525075A26EE1CFE35B61A01354C
S109E970B60F567ED04BE9
S503005BA1
S9030000FC
