S03500005B6C77746F6F6C7320342E32345D202F55736572732F646176652F736F757263652F7265706F732F74656D706573745F616974
S113F0007EF4317EF4A07EF61B7EF01D7EF0D77E6A
S113F010F0667EF34AF124F1D5F368F3EB34168EEF
S113F020B3E49FAD308900F2AF89FF0E8CBA82CC75
S113F0300000ED84DDA9DDAB35963410DEAD270E7E
S113F040AEC49FAD9EA9AFC4DFA91CFE35901A01C2
S113F05035903410DEAD27F6AEC49FAD9EABAFC481
S113F060DFAB1CFE35903476BDF0522566EC04AE61
S113F07002ED49D6A6E744E0492504E184250AE6E1
S113F08084E745EB49E744200358E745CC4646ED81
S113F0904FEC84ED4B8601A7C8118804C804ED4DDC
S113F0A0AE02AF42CC1000ED4630C8119FB010AE96
S113F0B042E64CD7B39EB030019FB0A64B97B2A6A0
S113F0C0A0A7843A48484848A7843A0AB226F00AD6
S113F0D0B326E21CFE35F63476BDD015BDF03A25D4
S113F0E0F2EC04AE02ED49D6A6E744E0492504E17A
S113F0F084250AE684E745EB49E744200358E745BD
S113F100CC4646ED4FEC84ED4B48A7C811860188E8
S113F11004C804ED4DAE02AF42CC0000ED468610AB
S113F120A7482085A7A4BFCA02FFCA003A9BA8A784
S113F130A4BFCA02FFCA003A9BA8A7A4BFCA02FF81
S113F140CA003A9BA8A7A4BFCA02FFCA003A9BA858
S113F150A7A4BFCA02FFCA003A9BA8A7A4BFCA02B9
S113F160FFCA003A9BA8A7A4BFCA02FFCA003A9BE1
S113F170A8A7A4BFCA02FFCA003A9BA8A7A4BFCAF3
S113F18002FFCA003A9BA8A7A4BFCA02FFCA003A5A
S113F1909BA8A7A4BFCA02FFCA003A9BA8A7A4BF02
S113F1A0CA02FFCA003A9BA8A7A4BFCA02FFCA00AA
S113F1B03A9BA8A7A4BFCA02FFCA003A9BA8A7A467
S113F1C0BFCA02FFCA003A9BA8A7A4BFCA02FFCACB
S113F1D0001CEF35A0A7C4E7849BA8A7C4E7849BC1
S113F1E0A8A7C4E7849BA8A7C4E7849BA8A7C4E7EF
S113F1F0849BA8A7C4E7849BA8A7C4E7849BA8A76B
S113F200C4E7849BA8A7C4E7849BA8A7C4E7849BFE
S113F210A8A7C4E7849BA8A7C4E7849BA8A7C4E7BE
S113F220849BA8A7C4E7849BA8A7C4E7849BA8A73A
S113F230C4E7841CEF39E6A811C0105086063D8E41
S113F240F1D53A3410A62697A8EC291A10F7CA0566
S113F250E62FCA10C4F7CE0000FFCA01F7CA03EEB6
S113F2602DFFCA06CECA048ECA0039CE98A910ACA6
S113F270C42708EEC426F71A1020FEECA4EDC4DC63
S113F280ADEDA4109FAD31C439EC26830080A126D6
S113F2902603E72739BDF2369659260BD65FE72AAF
S113F2A0E62554DB5EE724A62B484A97AFEC268379
S113F2B000804D2215CE98AB7EF26E6A2827ACA64C
S113F2C02B484A97AFEC26C30100ED2697A844E6E5
S113F2D02526014F97B230A81296A8E6253DDDB049
S113F2E0E6244F93B0DBB289002604C10722160A34
S113F2F0AFDBA8890026F8C10723F4E729EC2B909B
S113F300AF3D3A2002E72996AF4AD6A83DEB2989BA
S113F3100027080AAFD0A8820026F8C18F24F496EB
S113F320AF1027FF46A7A811801040C60B3DC3F1BC
S113F330243426EE2FEC2D1A10FDCA06A62AB7CACD
S113F34005E62CA629108ECA0439109EA9270BBDE8
S113F350F236BDF2BB10AEA426F5109EAB2708BD55
S113F360F28910AEA426F8391721900D21082290B5
S113F3700C2207214121900B214121062142219099
S113F3800A214221052143219009214321042144DA
S113F3902190082144210321452190082144210280
S113F3A02146219008214421012143214321900831
S113F3B0214321012143224321900821432101219A
S113F3C042210121432190C40821432342210121E8
S113F3D0432190082148210121432190C2082A0198
S113F3E0214321901221442190C3A00B2844219051
S113F3F00A214A239009214B219008214D2190078D
S113F40021442744219006214421072144219005C9
S113F41021442109214421900421442D44219003B5
S113F42021572190022159219001215B21903F9085
S113F430A01AFF10CEBF707FC80D7FC80C863CB7E2
S113F440C80D7FC80F86C0B7C80E863CB7C80F86E4
S113F450C0B7C80E8601B7C9008EF60B108EC00067
S113F460EC81EDA18CF61B25F78602108EF4758EC7
S113F47000007EFD65108EF47C7EFF3F8634B7C8A5
S113F4800DB7C80F7FC80E86981F8B10CEBF70BDF6
S113F490D0128601BD5F99108ED00086077EFE7F54
S113F4A08600A74596CE260F86028EF4B07ED066DF
S113F4B0B6C80C850226037ED063BDD060BDD0994A
S113F4C086FF97CE9759BDF5F5BDD012B6C80C4648
S113F4D01025061A1ABF108EF4DD7EFF0D8639B78B
S113F4E0CBFFB6C80C850226F4108EF4F07EFF3FE5
S113F4F086981F8BBDD0128604BD5F99C6038E709B
S113F500008639B7CBFFB6C80C85022616301F8C8F
S113F510000026ED5A26E7108EF5238E000086FFA4
S113F5207EFD658601B7C90086981F8BBDD0128603
S113F53005BD5F998639B7CBFFB6C80C850226F4A2
S113F5408E98004FA780C639F7CBFF8CBF7125F486
S113F550BDF5F5CCA55ADD8597CEBDD036BDD0C05E
S113F560BDD09986FF9759BDD054F5738D7A1C0090
S113F5707ED096BDFAAFBDFD001C0186062428C6C8
S113F5802F8CCD002202C61F1A1010CEF5938603CD
S113F5907EFE9310CEBF708D4F86981F8B1CEF8616
S113F5A007C11F22028608BDD012BD5F99BDFAAF04
S113F5B0DE156F49BDFC90BDFC99BDFADD24F886CB
S113F5C03FB7C80E86018EF5CC7ED066862CB7C8B0
S113F5D00EBDFAAFBDF928BDFAAFBDF888BDFADD9E
S113F5E02403BDFAAF7EF6777FC80E8634B7C80D04
S113F5F04CB7C80F398EF60B108E9800CEC000ECB5
S113F60081EDA1EDC18CF61B25F539000717C71F45
S113F6103F38C0A4FF3817CC818107863F1F8A8DED
S113F620D48685BEB9EA30891234108EF6317EFD57
S113F63065108EF6387EFF3F86981F8B10CEBF7004
S113F640BDFD00241F86038D2686088CCD00230271
S113F6508607C639F7CBFFBDD012BD5F998639B78F
S113F660CBFF20F98D47108EF61B86047EFE7F109B
S113F6708EF676BDFF1D39BDF6FEBDFAAFBDD012C4
S113F68086079700BDFAAF86389700BDFAAF86C0EB
S113F6909700BDFAAF8D16BDFAAF7EFAEE9F2B3000
S113F6A08910003089FF008C980022F7398E980069
S113F6B0108EF6EECEC000ECA1ED81EDC18639B717
S113F6C0CBFF8C981025F0CC00008E00008DCEED81
S113F6D08334028639B7CBFF35029C2B26F130895F
S113F6E009004D26038E0D00C3111124E0390505D0
S113F6F0282880800000ADAD2D2DA8A88585BDD01B
S113F700124FBDF91D86FF970186C0970286389770
S113F7100386079704108EF810CC0101AEA4ED8186
S113F720AC2226FA3124108CF83826F08611108E7B
S113F730F7F0AEA49F2BA7840C2B9E2BAC2226F6AD
S113F7403124108CF81026EA108EF838AEA49F2BC2
S113F750A624A7840C2B9E2BAC2226F63125108CD4
S113F760F87426E8108EF874AEA4A624A780AC2200
S113F77026FA3125108CF88826EE8621B7437E863A
S113F78020B7937E8E4B0A1A107FC900A684C60147
S113F790F7C9001CEF84F08A02A7808C4B6D26E722
S113F7A08E4B901A107FC900A684C601F7C9001CAD
S113F7B0EF84F08A02A7808C4BF326E78E0B189F08
S113F7C02B9E2B1A107FC900A684C601F7C9001C02
S113F7D0EF84F08A01A784D62CCB222504D72C20D1
S113F7E0E0C618D72CD62BCB10D72BC19B26D239E9
S113F7F00407940704299429044B944B046D946DD5
S113F800048F948F04B194B104D394D304F594F584
S113F810030703F5130713F5230723F5330733F51C
S113F820430743F5530753F5630763F5730773F50C
S113F830830783F5930793F545055205444506521E
S113F8400644450752070045085208334509520942
S113F8503345F352F33345F452F43345F552F5008E
S113F86045F652F64445F752F744047E437E22544B
S113F8707E937E22026F028E04036F038E30936F99
S113F880938E00946F948E343506DE15ED4DBDD005
S113F89012861EBD5F998680A74786018EF8A27ED8
S113F8A0D066BDFADD25346A4726EFB6F9058D6DBD
S113F8B08D2E8EF905A680DE15AF498D608680A752
S113F8C04786018EF8C97ED066BDFADD250D6A47EC
S113F8D026EFAE498CF90D25DC20D7DE156ED80D48
S113F8E08E0000108EF90DBDF69DA6A01F89ED8334
S113F8F09C2B26FA308909004D26038E0D00108CAE
S113F900F91D26E339020304101820408000FF117A
S113F910EE22DD33CC44BB55AA669977888E9800D5
S113F920A7808C981025F9393506DE15ED4D860A29
S113F930A74BBDD012860CBD5F99CEB3EA6FC01140
S113F94083B3F423F8CEF9E18D268634B7C8078D46
S113F9501F863CB7C8078D28BDFADD2406DE156A6C
S113F9604B270886018EF9457ED066DE156ED80DCC
S113F970AEC1270B10AEC1A684A8A4A72120F139DB
S113F980CEF9F9108EB3EAC601E52127028D1933A9
S113F990435824F53122108CB3F3220BB6C8062B3E
S113F9A0E6108CB3EF23E0393414863FB7C80EE871
S113F9B0A4E7A4E6E4E5A42610E642272286401F35
S113F9C001CC3006BDD01B3594E642271286401F79
S113F9D001C6BBD7CFECC4BD5F968637B7C80E351A
S113F9E094C80CB3EAC804B3ECC806B3EE0000C86C
S113F9F004B3F0C806B3F200000D002C0E00330F60
S113FA00003A10004111004812004F130056000044
S113FA100014015D15016416016B17017218007959
S113FA201900801A01871B018E1C01951D019C0081
S113FA3000000000000000000000000000000000C2
S113FA40001402A31502AA1602B11702B80000009E
S113FA500000001A02BF1B02C61C02CD1D02D40006
S113FA600000000000000000000000000000000092
S113FA7000CEF5402003CEF51710CEBF70108EFADD
S113FA808686017EFE7FB6C80C850226F0108EFAAB
S113FA909686017EFE7FB6C80C850227F0108EFA8A
S113FAA0A686017EFE7FB6C80C850226F06EC4359C
S113FAB006DE15ED4DB6C80C8502260886018EFAC1
S113FAC0B57ED0660F00BDD0122007B6C80C8502E3
S113FAD0270886028EFACB7ED0666ED80D3402B625
S113FAE0C80C850227041A0135821CFE358286FF64
S113FAF09759BDF5F58DE624028DB4861FBD5F9937
S113FB00CECD0286203402BD5F991E31BDD0A5340E
S113FB1004BDD0A81F0235041E318D7135024C116D
S113FB2083CD3225E0866ABD5F9934108ECD2010D6
S113FB308ECD2CBDFBBF3510F6B41810BEB4198D94
S113FB404CB6B41B840FB7B41CB6B41B851027087D
S113FB5084EF448B0519200144BBB41C191F89860A
S113FB606BBD5F99866CBD5F9934108ECD26108E67
S113FB70CD2C8D4B3510F6B41810BEB4198D0EF67D
S113FB80B41B866DBD5F99BDFAAF7E6F005D270C17
S113FB908629BD5F99862ABD5F992005862BBD5FA6
S113FBA099393404BDD0A21F89840F8109230286A8
S113FBB009C4F0C1902302C6903404AAE035843409
S113FBC076CC0000FDB418FDB41A8DD6B7B4068DFA
S113FBD0D1B7B4078DCCB7B408CC0000B7B409FDD5
S113FBE0B40AB7B415FDB4161F21BDFBA2B7B412F5
S113FBF0BDFBA2B7B413BDFBA2B7B4142605FCB475
S113FC0012273ACEB41A7DB4122612335FC6058E7B
S113FC10B412A601A7805A26F96F8420E98EB4068F
S113FC208D1D24FC108EB417C605A63FA7A4313F32
S113FC305A26F76FA433411183B41B23E335F6101E
S113FC408EB4128600E686E0A0220725404C810689
S113FC5025F3C606108EB40C8699A026A7A05A26B2
S113FC60F7C6061CFE8601A9A219A7A486005A2677
S113FC70F6C605108EB4121CFEA6A2A98519A78586
S113FC805A2AF6A6C48B0119A7C41CFE391A0139D5
S113FC90BDD012CCFE01ED47393506ED4D863FB798
S113FCA0C80E86018EFCAA7ED066862CB7C80E8646
S113FCB0018EFCB77ED066863FB7C80E86018EFCE7
S113FCC0C47ED066EC47843FB7C80E8609BD5F99F1
S113FCD08640A74B86018EFCDC7ED066BDFADD250E
S113FCE0046A4B26EFA6492606B6C80C46240EEC39
S113FCF0471A01495CC10725028D98ED476ED80D5E
S113FD008ECC00108EB3EAA680A7A08CD00026F774
S113FD10C6061A3FDE85109E848ECC00BDD039A75E
S113FD20808639B7CBFF8CD00026F1109F84DF8505
S113FD308ECC00BDD039A880840F26248639B7CB59
S113FD40FF8CD00026ED5A26CB8D031CFE39CEB392
S113FD50EA108ECC00A6C0A7A0108CD00026F639DD
S113FD608DEC1A01391A3F7FC9001F8B1F101F0326
S113FD708E000053C5092605534656200B53C5096A
S113FD802604465620024456ED811E105D2615C6F3
S113FD9039F7CBFF1FB9C1FF2609F6C80CC50227E6
S113FDA0026EA45F1E108CC00026C81F308E000097
S113FDB053C5092605534656200B53C50926044648
S113FDC0562002445610A38126431E105D2615C6F4
S113FDD039F7CBFF1FB9C1FF2609F6C80CC50227A6
S113FDE0026EA45F1E108CC00026C51F031FB881BD
S113FDF0FF26051F307EFD704A1F8B818027074D2B
S113FE001F301026FF6AC601F7C9006EA4301EA871
S113FE1084E8014D26075D2604300220ADCE003073
S113FE201E105F1E108C000027123089FF0033C89B
S113FE30101183003023EECE001020E93341472512
S113FE400557250220F61F308601B7C90010CEFEE3
S113FE5053204086981F8B1FA84385C02704860B18
S113FE602002860210CEBF70BDD012BD5F991FA8BC
S113FE70854026037EFA71108ED000200086208EE5
S113FE805800301FC639F7CBFF8C000026F44A26F1
S113FE90EE6EA41F0386021F8B1F30108EFEA1205E
S113FEA07C8602108EFEA920D6108EFEAF205E86C0
S113FEB001108EFEB720C81F301F984444444410DC
S113FEC08EFEC520588602108EFECD20B2108EFE06
S113FED0D3203A8601108EFEDB20A41F301F981019
S113FEE08EFEE520388602108EFEED2092108EFEE6
S113FEF0F3201A8605108EFEFC7EFE7F1FB84A1F73
S113FF008B2696108EFF0920041F306EE4863CB7C2
S113FF10C80D4CB7C80F86C0B7C80E6EA41F89465B
S113FF20464684C0B7C80E8634C5042702863CB74B
S113FF30C80F8634C5082702863CB7C80D6EA41ABC
S113FF403F8EFFB58CFFD5276AA6012718A6845FCC
S113FF501F038639EBC0B7CBFF1E03A1021E032685
S113FF60F3E1012604300220DBA6844444444481A6
S113FF700D250280048B01191F89860210CEFF8390
S113FF807EFE9386981F8B8639B7CBFF10CEBF7049
S113FF90BDD0121FA84385C02704860A2002860309
S113FFA0BD5F991FA9C54026037EFA76108ED00046
S113FFB07EFE7D6EA4000010002000300040005042
S113FFC0006000700080009000A000B000C000D06D
S113FFD000E000F00000002843293139383220576E
S113FFE0494C4C49414D5320454C45432E494E43C1
S113FFF0F000F000F000F000F000F000F000F0007D
S5030100FB
S9030000FC
