S03500005B6C77746F6F6C7320342E32345D202F55736572732F646176652F736F757263652F7265706F732F74656D706573745F616974
S1136F007E70FD7E74B87E752C7E753A7E6F116F2F
S1136F10653402A6801E12BDD0AB1E125A26F4356B
S1136F20828ECC006F808CD00026F93934368E6F77
S1136F3053108ECC00C6128DD835B634368E6F659C
S1136F40108ECC24C6348DC9BD74918ECC8EBDD028
S1136F50AB35B6250303010401010000010303005E
S1136F600000000000202020202048454C4C4F20E9
S1136F70574F524C442120202020202020205749C4
S1136F804C4C49414D5320454C454354524F4E4976
S1136F90435320494E433D2F2801040101000001C1
S1136FA004010204000600010100000104010100C3
S1136FB000011606020000010401020000010004A1
S1136FC001000001000201000001000202000001B2
S1136FD0040101000000507041001E0120704C00AB
S1136FE0270009705A003200997057013B009970CC
S1136FF057014400997057014D019970570156008B
S1137000997057015F0099705701680001706F0013
S11370107300107079007C03207084008500017077
S11370207400900001707400990001707400A20053
S113703001707400AB0001707400B400017074003E
S1137040BD005A20402541304E5066FF00420243A5
S1137050034404450542FF0042FF00460152025327
S1137060035404550556065707580859097BFF0071
S1137070480147FF00480151FF0049034A054406FF
S11370804C084DFF00440442FF342286116D44270E
S1137090028616E6451F01A6E4BD5F968D0235A261
S11370A034361E12BDD0A5C1FF2602C6EE1E121E26
S11370B0108659E6451E103406CC3C05BDD01B3560
S11370C0068D05BD5F9635B6342010AE42E1A1248D
S11370D0FCA63D35A0BDD012866697CFCE6FD510E5
S11370E08ECC00862E8ECC2434108D9D33463122D6
S11370F04C10ACE426F4862DBD5F963590BD74AB80
S11371002703BD6F2C8ECC186F808CCC2425F9BD41
S113711074788DC1CE6FD5108ECC00862EBD74339D
S1137120BD71FEBDD054729FBD721D8D0886018E47
S113713071287ED0663506DE15ED4D8620A747B64C
S1137140C8042B22854026036ED80D8D3286018E0D
S113715071557ED066B6C804854027EC6A4726ED93
S11371608605A74720E58D3D86018E71707ED06629
S1137170B6C8042AD36A4726EF8605A74720E7BD89
S1137180743E1F21BDD0A2108CCC0027328B011974
S11371902512A141220E1F21BDD0ABBD7478BD7054
S11371A0A0BD744939BD743E1F21BDD0A24D27F442
S11371B0108CCC00270F8B9919A1C425E720D78DFB
S11371C00AA60120D18D04A61F20CB8E71DBA184D9
S11371D0230730018C71DF25F5390000202530505C
S11371E0503412A64427138ECC044A27038ECC14A1
S11371F0BDD0A24D27041A0135921CFE35923416D7
S1137200E645860C1F01862CBD5F9635963416E63E
S113721045860C1F01CC0305BDD01B35963506DE13
S113722015ED4D8630A747B6C804462521462503EB
S11372306ED80D8D3386018E723D7ED066B6C8043D
S1137240850227EC6A4726ED8608A74720E58D349A
S113725086018E72587ED066B6C8044624D26A4728
S113726026EE8608A74720E6BD743E8DA0108CCC80
S113727022270D31224C3346BD71E125F0BD743314
S1137280BD71FE39BD743E8D84108CCC0027F13164
S11372903E4A335ABD71E125F0BD74337E71FE86DA
S11372A0018E72A77ED066B6C80C850227F1BDD0C8
S11372B060BDD012B6C80C850226F9B6CC1B840F6B
S11372C027147FCC1BBD7478BDD012BD75158640C4
S11372D08E72D67ED066B6CC1D840F27117FCC1D4E
S11372E0BD7478BDE3D986408E72EE7ED066B6CC8E
S11372F021840F275D7FCC21BD7478863A8ECC24FF
S1137300C632BDD0AB5A26FABDD012865CBD5F9999
S1137310108ECC248E2530CC1980BD753AC6308EA3
S1137320CC88108ECC24BD738A865CBD5F99BD74F5
S11373300D108ECC568E2540CC1980BD753AC640B2
S11373408ECC8A108ECC568D41BD74918ECC8EBD60
S1137350D0ABB6CC23840F27097FCC23BD7478BD72
S1137360E3D6B6CC1F840F270B7FCC1FBD74788D5A
S1137370087EF0068D037ED000B6CC19840F270951
S11373807CCC8C7CCC8C7FCC1939DE158625ED47E2
S11373903506ED4DAF4B10AF498625BDD0AB8665A4
S11373A0BD5F9986048E73AB7ED066B6C80C850229
S11373B026F1B6C80685022710AE4BBDD0A2AE4B4F
S11373C04C813A2315863A201146241DAE4BBDD07C
S11373D0A2AE4B4A811324028613BDD0ABA7478DBE
S11373E02C86108E73B27ED066B6C80C8502260831
S11373F086048E73B27ED066BDD01286048E74036A
S11374007ED066B6C80C850226F16ED80D0FD0AEBC
S1137410473089FF00865AC609BDD01BAE470FD03E
S113742010AE49C6191E12BDD0A21E12BD5F935ADA
S113743026F33910BFB3ECFFB3EFB7B3EE3910BE88
S1137440B3ECFEB3EFB6B3EE39108CCC042701399C
S11374501F21BDD0A248340248ABE08E6F9930861C
S113746033463122A68034101F21BDD0AB3510BD68
S113747070A0108CCC1025E834128D088ECC8CBDF5
S1137480D0AB359234348ECC00108ECC248D09359B
S1137490B48ECC24108ECC8C109F2B4FE680C40F5E
S11374A03404ABE09C2B26F48B37398DD734028E11
S11374B0CC8CBDD0A2A1E0398D6B8DEF273A8639F3
S11374C0B7CBFFBD6F2C8639B7CBFF8DAB8639B7F1
S11374D0CBFFBDD0128639B7CBFF8D23BDE3DCBD16
S11374E0E3D08DC72715864FBD5F998639B7CBFF8B
S11374F0B6C80C850227F4397EE3D0865020E98E85
S1137500CD02C604A680840F810923035A27068C62
S1137510CD3226F039865BBD5F998ECD026F808CAB
S1137520CD3226F9398D0527FB7E6F3BBD7491342E
S1137530028ECC8EBDD0A2A1E039DE15ED47AF4955
S113754010AF4B3506ED4D86048E754F7ED0668D9B
S11375503426F4BDD0547749EC4DED0DEC47ED07DE
S1137560EF099FD8869997CF0FD00FDA0FDB0FDC86
S11375708D0886028E758B7ED066BD762ABD7636E2
S1137580863A7E765DB6C804854039B6C80446108E
S113759025011646102500F38DEB27D6A6488480D6
S11375A08B20A748BD7648815E274D96D097DCBDD9
S11375B07645BD7648AE499FDABD5F93AF49BD7647
S11375C0726A47272BBD757A86028E75D07ED06687
S11375D08DB3270FA6474A27EF6A482706A6488196
S11375E08026E5BD7585278AA64884808B0420B251
S11375F09ED8BDD05D6ED80D8D4B8D2E863A8D5D97
S11376009EDAAF49D6DCD7D06C4710AE4B313F1071
S11376108CC0002502313F10AF4B86018E76227E4E
S1137620D066BD758526F37E756A3406AE49CC04F2
S113763007BDD01B35868699AE49A708A7890108DE
S1137640A7890208394F20F010AE4B108CC00024DB
S113765003A6A4393410AE4BBDD0A2359010AE4B66
S1137660108CC0002403A7A4393410AE4BBDD0AB9A
S1137670359010AE4B3121108CC000250231211001
S1137680AF4B398E2000301F26FC39860A8D7F8D42
S1137690F2F6C804C5021027FEFE4A26F286018EC1
S11376A076A57ED066860120E4860A8D198DD4F6EF
S11376B0C804561024FEE14A26F386018E76C27E63
S11376C0D066860120E53402BD76484C6D482A1503
S11376D00DDA2704815E2306815D23028630813E14
S11376E0261B4C2018815A230E0DDA2708815E22AE
S11376F004865E2002863A813B26028641BD765D81
S1137700BD762AD6D0AE49BD5F93D7D03582340238
S1137710BD76484A6D482A158130240A0DDA2704BB
S1137720865E2002865D813E261D4A201A81392606
S11377300A0DDA2704865E2002865A8140260286D4
S11377403A815D2602865A20B46D482B3486FF8E1A
S113775077557ED06686FF8E775D7ED06686828E74
S113776077657ED0666A4726E4AE493384BD7648A1
S1137770815E2605863ABD765DDE15BDD05D6ED888
S11377800DB6C80C850226E186018E77817ED0660F
S503008973
S9030000FC
